{
  "_format": "hh-sol-artifact-1",
  "contractName": "PropertyCollateral",
  "sourceName": "src/PropertyCollateral.sol",
  "abi": [
    {
      "inputs": [],
      "stateMutability": "nonpayable",
      "type": "constructor"
    },
    {
      "inputs": [
        {
          "internalType": "address",
          "name": "sender",
          "type": "address"
        },
        {
          "internalType": "uint256",
          "name": "tokenId",
          "type": "uint256"
        },
        {
          "internalType": "address",
          "name": "owner",
          "type": "address"
        }
      ],
      "name": "ERC721IncorrectOwner",
      "type": "error"
    },
    {
      "inputs": [
        {
          "internalType": "address",
          "name": "operator",
          "type": "address"
        },
        {
          "internalType": "uint256",
          "name": "tokenId",
          "type": "uint256"
        }
      ],
      "name": "ERC721InsufficientApproval",
      "type": "error"
    },
    {
      "inputs": [
        {
          "internalType": "address",
          "name": "approver",
          "type": "address"
        }
      ],
      "name": "ERC721InvalidApprover",
      "type": "error"
    },
    {
      "inputs": [
        {
          "internalType": "address",
          "name": "operator",
          "type": "address"
        }
      ],
      "name": "ERC721InvalidOperator",
      "type": "error"
    },
    {
      "inputs": [
        {
          "internalType": "address",
          "name": "owner",
          "type": "address"
        }
      ],
      "name": "ERC721InvalidOwner",
      "type": "error"
    },
    {
      "inputs": [
        {
          "internalType": "address",
          "name": "receiver",
          "type": "address"
        }
      ],
      "name": "ERC721InvalidReceiver",
      "type": "error"
    },
    {
      "inputs": [
        {
          "internalType": "address",
          "name": "sender",
          "type": "address"
        }
      ],
      "name": "ERC721InvalidSender",
      "type": "error"
    },
    {
      "inputs": [
        {
          "internalType": "uint256",
          "name": "tokenId",
          "type": "uint256"
        }
      ],
      "name": "ERC721NonexistentToken",
      "type": "error"
    },
    {
      "inputs": [
        {
          "internalType": "address",
          "name": "owner",
          "type": "address"
        }
      ],
      "name": "OwnableInvalidOwner",
      "type": "error"
    },
    {
      "inputs": [
        {
          "internalType": "address",
          "name": "account",
          "type": "address"
        }
      ],
      "name": "OwnableUnauthorizedAccount",
      "type": "error"
    },
    {
      "inputs": [],
      "name": "ReentrancyGuardReentrantCall",
      "type": "error"
    },
    {
      "anonymous": false,
      "inputs": [
        {
          "indexed": true,
          "internalType": "address",
          "name": "owner",
          "type": "address"
        },
        {
          "indexed": true,
          "internalType": "address",
          "name": "approved",
          "type": "address"
        },
        {
          "indexed": true,
          "internalType": "uint256",
          "name": "tokenId",
          "type": "uint256"
        }
      ],
      "name": "Approval",
      "type": "event"
    },
    {
      "anonymous": false,
      "inputs": [
        {
          "indexed": true,
          "internalType": "address",
          "name": "owner",
          "type": "address"
        },
        {
          "indexed": true,
          "internalType": "address",
          "name": "operator",
          "type": "address"
        },
        {
          "indexed": false,
          "internalType": "bool",
          "name": "approved",
          "type": "bool"
        }
      ],
      "name": "ApprovalForAll",
      "type": "event"
    },
    {
      "anonymous": false,
      "inputs": [
        {
          "indexed": false,
          "internalType": "uint256",
          "name": "_fromTokenId",
          "type": "uint256"
        },
        {
          "indexed": false,
          "internalType": "uint256",
          "name": "_toTokenId",
          "type": "uint256"
        }
      ],
      "name": "BatchMetadataUpdate",
      "type": "event"
    },
    {
      "anonymous": false,
      "inputs": [
        {
          "indexed": false,
          "internalType": "uint256",
          "name": "_tokenId",
          "type": "uint256"
        }
      ],
      "name": "MetadataUpdate",
      "type": "event"
    },
    {
      "anonymous": false,
      "inputs": [
        {
          "indexed": true,
          "internalType": "address",
          "name": "previousOwner",
          "type": "address"
        },
        {
          "indexed": true,
          "internalType": "address",
          "name": "newOwner",
          "type": "address"
        }
      ],
      "name": "OwnershipTransferred",
      "type": "event"
    },
    {
      "anonymous": false,
      "inputs": [
        {
          "indexed": true,
          "internalType": "uint256",
          "name": "tokenId",
          "type": "uint256"
        },
        {
          "indexed": true,
          "internalType": "address",
          "name": "previousOwner",
          "type": "address"
        },
        {
          "indexed": true,
          "internalType": "address",
          "name": "newOwner",
          "type": "address"
        },
        {
          "indexed": false,
          "internalType": "uint256",
          "name": "amount",
          "type": "uint256"
        }
      ],
      "name": "PropertyLiquidated",
      "type": "event"
    },
    {
      "anonymous": false,
      "inputs": [
        {
          "indexed": true,
          "internalType": "uint256",
          "name": "tokenId",
          "type": "uint256"
        },
        {
          "indexed": true,
          "internalType": "uint256",
          "name": "rentalContractId",
          "type": "uint256"
        },
        {
          "indexed": true,
          "internalType": "address",
          "name": "lockedBy",
          "type": "address"
        }
      ],
      "name": "PropertyLocked",
      "type": "event"
    },
    {
      "anonymous": false,
      "inputs": [
        {
          "indexed": true,
          "internalType": "uint256",
          "name": "tokenId",
          "type": "uint256"
        },
        {
          "indexed": true,
          "internalType": "address",
          "name": "owner",
          "type": "address"
        },
        {
          "indexed": false,
          "internalType": "string",
          "name": "propertyId",
          "type": "string"
        },
        {
          "indexed": false,
          "internalType": "uint256",
          "name": "valueBRL",
          "type": "uint256"
        }
      ],
      "name": "PropertyRegistered",
      "type": "event"
    },
    {
      "anonymous": false,
      "inputs": [
        {
          "indexed": true,
          "internalType": "uint256",
          "name": "tokenId",
          "type": "uint256"
        },
        {
          "indexed": true,
          "internalType": "uint256",
          "name": "rentalContractId",
          "type": "uint256"
        }
      ],
      "name": "PropertyUnlocked",
      "type": "event"
    },
    {
      "anonymous": false,
      "inputs": [
        {
          "indexed": true,
          "internalType": "uint256",
          "name": "tokenId",
          "type": "uint256"
        },
        {
          "indexed": false,
          "internalType": "uint256",
          "name": "oldValue",
          "type": "uint256"
        },
        {
          "indexed": false,
          "internalType": "uint256",
          "name": "newValue",
          "type": "uint256"
        }
      ],
      "name": "PropertyValueUpdated",
      "type": "event"
    },
    {
      "anonymous": false,
      "inputs": [
        {
          "indexed": true,
          "internalType": "uint256",
          "name": "tokenId",
          "type": "uint256"
        },
        {
          "indexed": true,
          "internalType": "address",
          "name": "verifier",
          "type": "address"
        }
      ],
      "name": "PropertyVerified",
      "type": "event"
    },
    {
      "anonymous": false,
      "inputs": [
        {
          "indexed": true,
          "internalType": "address",
          "name": "from",
          "type": "address"
        },
        {
          "indexed": true,
          "internalType": "address",
          "name": "to",
          "type": "address"
        },
        {
          "indexed": true,
          "internalType": "uint256",
          "name": "tokenId",
          "type": "uint256"
        }
      ],
      "name": "Transfer",
      "type": "event"
    },
    {
      "inputs": [
        {
          "internalType": "address",
          "name": "to",
          "type": "address"
        },
        {
          "internalType": "uint256",
          "name": "tokenId",
          "type": "uint256"
        }
      ],
      "name": "approve",
      "outputs": [],
      "stateMutability": "nonpayable",
      "type": "function"
    },
    {
      "inputs": [
        {
          "internalType": "address",
          "name": "owner",
          "type": "address"
        }
      ],
      "name": "balanceOf",
      "outputs": [
        {
          "internalType": "uint256",
          "name": "",
          "type": "uint256"
        }
      ],
      "stateMutability": "view",
      "type": "function"
    },
    {
      "inputs": [
        {
          "internalType": "uint256",
          "name": "tokenId",
          "type": "uint256"
        }
      ],
      "name": "canBeUsedAsCollateral",
      "outputs": [
        {
          "internalType": "bool",
          "name": "",
          "type": "bool"
        }
      ],
      "stateMutability": "view",
      "type": "function"
    },
    {
      "inputs": [
        {
          "internalType": "uint256",
          "name": "tokenId",
          "type": "uint256"
        }
      ],
      "name": "getApproved",
      "outputs": [
        {
          "internalType": "address",
          "name": "",
          "type": "address"
        }
      ],
      "stateMutability": "view",
      "type": "function"
    },
    {
      "inputs": [
        {
          "internalType": "uint256",
          "name": "tokenId",
          "type": "uint256"
        }
      ],
      "name": "getLockHistory",
      "outputs": [
        {
          "components": [
            {
              "internalType": "uint256",
              "name": "propertyTokenId",
              "type": "uint256"
            },
            {
              "internalType": "uint256",
              "name": "rentalContractId",
              "type": "uint256"
            },
            {
              "internalType": "address",
              "name": "lockedBy",
              "type": "address"
            },
            {
              "internalType": "uint256",
              "name": "lockedAt",
              "type": "uint256"
            },
            {
              "internalType": "uint256",
              "name": "unlockedAt",
              "type": "uint256"
            },
            {
              "internalType": "bool",
              "name": "isActive",
              "type": "bool"
            }
          ],
          "internalType": "struct PropertyCollateral.LockRecord[]",
          "name": "",
          "type": "tuple[]"
        }
      ],
      "stateMutability": "view",
      "type": "function"
    },
    {
      "inputs": [
        {
          "internalType": "address",
          "name": "owner_",
          "type": "address"
        }
      ],
      "name": "getOwnerProperties",
      "outputs": [
        {
          "internalType": "uint256[]",
          "name": "",
          "type": "uint256[]"
        }
      ],
      "stateMutability": "view",
      "type": "function"
    },
    {
      "inputs": [
        {
          "internalType": "uint256",
          "name": "tokenId",
          "type": "uint256"
        }
      ],
      "name": "getProperty",
      "outputs": [
        {
          "components": [
            {
              "internalType": "string",
              "name": "propertyId",
              "type": "string"
            },
            {
              "internalType": "string",
              "name": "registrationNumber",
              "type": "string"
            },
            {
              "internalType": "address",
              "name": "owner",
              "type": "address"
            },
            {
              "internalType": "uint256",
              "name": "valueBRL",
              "type": "uint256"
            },
            {
              "internalType": "uint256",
              "name": "valueWei",
              "type": "uint256"
            },
            {
              "internalType": "string",
              "name": "ipfsHash",
              "type": "string"
            },
            {
              "internalType": "string",
              "name": "city",
              "type": "string"
            },
            {
              "internalType": "string",
              "name": "state",
              "type": "string"
            },
            {
              "internalType": "bool",
              "name": "isLocked",
              "type": "bool"
            },
            {
              "internalType": "uint256",
              "name": "lockedForRental",
              "type": "uint256"
            },
            {
              "internalType": "uint256",
              "name": "registeredAt",
              "type": "uint256"
            },
            {
              "internalType": "bool",
              "name": "isVerified",
              "type": "bool"
            }
          ],
          "internalType": "struct PropertyCollateral.Property",
          "name": "",
          "type": "tuple"
        }
      ],
      "stateMutability": "view",
      "type": "function"
    },
    {
      "inputs": [],
      "name": "getStats",
      "outputs": [
        {
          "internalType": "uint256",
          "name": "_totalProperties",
          "type": "uint256"
        },
        {
          "internalType": "uint256",
          "name": "_totalLockedValue",
          "type": "uint256"
        },
        {
          "internalType": "uint256",
          "name": "_tokenCounter",
          "type": "uint256"
        }
      ],
      "stateMutability": "view",
      "type": "function"
    },
    {
      "inputs": [
        {
          "internalType": "address",
          "name": "owner",
          "type": "address"
        },
        {
          "internalType": "address",
          "name": "operator",
          "type": "address"
        }
      ],
      "name": "isApprovedForAll",
      "outputs": [
        {
          "internalType": "bool",
          "name": "",
          "type": "bool"
        }
      ],
      "stateMutability": "view",
      "type": "function"
    },
    {
      "inputs": [
        {
          "internalType": "uint256",
          "name": "tokenId",
          "type": "uint256"
        },
        {
          "internalType": "address",
          "name": "newOwner",
          "type": "address"
        },
        {
          "internalType": "uint256",
          "name": "amount",
          "type": "uint256"
        }
      ],
      "name": "liquidateProperty",
      "outputs": [],
      "stateMutability": "nonpayable",
      "type": "function"
    },
    {
      "inputs": [
        {
          "internalType": "uint256",
          "name": "tokenId",
          "type": "uint256"
        },
        {
          "internalType": "uint256",
          "name": "rentalContractId",
          "type": "uint256"
        }
      ],
      "name": "lockAsCollateral",
      "outputs": [],
      "stateMutability": "nonpayable",
      "type": "function"
    },
    {
      "inputs": [
        {
          "internalType": "uint256",
          "name": "",
          "type": "uint256"
        },
        {
          "internalType": "uint256",
          "name": "",
          "type": "uint256"
        }
      ],
      "name": "lockHistory",
      "outputs": [
        {
          "internalType": "uint256",
          "name": "propertyTokenId",
          "type": "uint256"
        },
        {
          "internalType": "uint256",
          "name": "rentalContractId",
          "type": "uint256"
        },
        {
          "internalType": "address",
          "name": "lockedBy",
          "type": "address"
        },
        {
          "internalType": "uint256",
          "name": "lockedAt",
          "type": "uint256"
        },
        {
          "internalType": "uint256",
          "name": "unlockedAt",
          "type": "uint256"
        },
        {
          "internalType": "bool",
          "name": "isActive",
          "type": "bool"
        }
      ],
      "stateMutability": "view",
      "type": "function"
    },
    {
      "inputs": [],
      "name": "name",
      "outputs": [
        {
          "internalType": "string",
          "name": "",
          "type": "string"
        }
      ],
      "stateMutability": "view",
      "type": "function"
    },
    {
      "inputs": [],
      "name": "owner",
      "outputs": [
        {
          "internalType": "address",
          "name": "",
          "type": "address"
        }
      ],
      "stateMutability": "view",
      "type": "function"
    },
    {
      "inputs": [
        {
          "internalType": "uint256",
          "name": "tokenId",
          "type": "uint256"
        }
      ],
      "name": "ownerOf",
      "outputs": [
        {
          "internalType": "address",
          "name": "",
          "type": "address"
        }
      ],
      "stateMutability": "view",
      "type": "function"
    },
    {
      "inputs": [
        {
          "internalType": "address",
          "name": "",
          "type": "address"
        },
        {
          "internalType": "uint256",
          "name": "",
          "type": "uint256"
        }
      ],
      "name": "ownerProperties",
      "outputs": [
        {
          "internalType": "uint256",
          "name": "",
          "type": "uint256"
        }
      ],
      "stateMutability": "view",
      "type": "function"
    },
    {
      "inputs": [
        {
          "internalType": "uint256",
          "name": "",
          "type": "uint256"
        }
      ],
      "name": "properties",
      "outputs": [
        {
          "internalType": "string",
          "name": "propertyId",
          "type": "string"
        },
        {
          "internalType": "string",
          "name": "registrationNumber",
          "type": "string"
        },
        {
          "internalType": "address",
          "name": "owner",
          "type": "address"
        },
        {
          "internalType": "uint256",
          "name": "valueBRL",
          "type": "uint256"
        },
        {
          "internalType": "uint256",
          "name": "valueWei",
          "type": "uint256"
        },
        {
          "internalType": "string",
          "name": "ipfsHash",
          "type": "string"
        },
        {
          "internalType": "string",
          "name": "city",
          "type": "string"
        },
        {
          "internalType": "string",
          "name": "state",
          "type": "string"
        },
        {
          "internalType": "bool",
          "name": "isLocked",
          "type": "bool"
        },
        {
          "internalType": "uint256",
          "name": "lockedForRental",
          "type": "uint256"
        },
        {
          "internalType": "uint256",
          "name": "registeredAt",
          "type": "uint256"
        },
        {
          "internalType": "bool",
          "name": "isVerified",
          "type": "bool"
        }
      ],
      "stateMutability": "view",
      "type": "function"
    },
    {
      "inputs": [
        {
          "internalType": "string",
          "name": "",
          "type": "string"
        }
      ],
      "name": "propertyIdToToken",
      "outputs": [
        {
          "internalType": "uint256",
          "name": "",
          "type": "uint256"
        }
      ],
      "stateMutability": "view",
      "type": "function"
    },
    {
      "inputs": [
        {
          "internalType": "string",
          "name": "propertyId",
          "type": "string"
        },
        {
          "internalType": "string",
          "name": "registrationNumber",
          "type": "string"
        },
        {
          "internalType": "uint256",
          "name": "valueBRL",
          "type": "uint256"
        },
        {
          "internalType": "uint256",
          "name": "valueWei",
          "type": "uint256"
        },
        {
          "internalType": "string",
          "name": "city",
          "type": "string"
        },
        {
          "internalType": "string",
          "name": "state",
          "type": "string"
        },
        {
          "internalType": "string",
          "name": "ipfsHash",
          "type": "string"
        }
      ],
      "name": "registerProperty",
      "outputs": [
        {
          "internalType": "uint256",
          "name": "",
          "type": "uint256"
        }
      ],
      "stateMutability": "nonpayable",
      "type": "function"
    },
    {
      "inputs": [],
      "name": "renounceOwnership",
      "outputs": [],
      "stateMutability": "nonpayable",
      "type": "function"
    },
    {
      "inputs": [
        {
          "internalType": "address",
          "name": "from",
          "type": "address"
        },
        {
          "internalType": "address",
          "name": "to",
          "type": "address"
        },
        {
          "internalType": "uint256",
          "name": "tokenId",
          "type": "uint256"
        }
      ],
      "name": "safeTransferFrom",
      "outputs": [],
      "stateMutability": "nonpayable",
      "type": "function"
    },
    {
      "inputs": [
        {
          "internalType": "address",
          "name": "from",
          "type": "address"
        },
        {
          "internalType": "address",
          "name": "to",
          "type": "address"
        },
        {
          "internalType": "uint256",
          "name": "tokenId",
          "type": "uint256"
        },
        {
          "internalType": "bytes",
          "name": "data",
          "type": "bytes"
        }
      ],
      "name": "safeTransferFrom",
      "outputs": [],
      "stateMutability": "nonpayable",
      "type": "function"
    },
    {
      "inputs": [
        {
          "internalType": "address",
          "name": "operator",
          "type": "address"
        },
        {
          "internalType": "bool",
          "name": "approved",
          "type": "bool"
        }
      ],
      "name": "setApprovalForAll",
      "outputs": [],
      "stateMutability": "nonpayable",
      "type": "function"
    },
    {
      "inputs": [
        {
          "internalType": "address",
          "name": "_vinculoContract",
          "type": "address"
        }
      ],
      "name": "setVinculoContract",
      "outputs": [],
      "stateMutability": "nonpayable",
      "type": "function"
    },
    {
      "inputs": [
        {
          "internalType": "bytes4",
          "name": "interfaceId",
          "type": "bytes4"
        }
      ],
      "name": "supportsInterface",
      "outputs": [
        {
          "internalType": "bool",
          "name": "",
          "type": "bool"
        }
      ],
      "stateMutability": "view",
      "type": "function"
    },
    {
      "inputs": [],
      "name": "symbol",
      "outputs": [
        {
          "internalType": "string",
          "name": "",
          "type": "string"
        }
      ],
      "stateMutability": "view",
      "type": "function"
    },
    {
      "inputs": [
        {
          "internalType": "uint256",
          "name": "tokenId",
          "type": "uint256"
        }
      ],
      "name": "tokenURI",
      "outputs": [
        {
          "internalType": "string",
          "name": "",
          "type": "string"
        }
      ],
      "stateMutability": "view",
      "type": "function"
    },
    {
      "inputs": [],
      "name": "totalLockedValue",
      "outputs": [
        {
          "internalType": "uint256",
          "name": "",
          "type": "uint256"
        }
      ],
      "stateMutability": "view",
      "type": "function"
    },
    {
      "inputs": [],
      "name": "totalProperties",
      "outputs": [
        {
          "internalType": "uint256",
          "name": "",
          "type": "uint256"
        }
      ],
      "stateMutability": "view",
      "type": "function"
    },
    {
      "inputs": [
        {
          "internalType": "address",
          "name": "from",
          "type": "address"
        },
        {
          "internalType": "address",
          "name": "to",
          "type": "address"
        },
        {
          "internalType": "uint256",
          "name": "tokenId",
          "type": "uint256"
        }
      ],
      "name": "transferFrom",
      "outputs": [],
      "stateMutability": "nonpayable",
      "type": "function"
    },
    {
      "inputs": [
        {
          "internalType": "address",
          "name": "newOwner",
          "type": "address"
        }
      ],
      "name": "transferOwnership",
      "outputs": [],
      "stateMutability": "nonpayable",
      "type": "function"
    },
    {
      "inputs": [
        {
          "internalType": "uint256",
          "name": "tokenId",
          "type": "uint256"
        },
        {
          "internalType": "uint256",
          "name": "rentalContractId",
          "type": "uint256"
        }
      ],
      "name": "unlockCollateral",
      "outputs": [],
      "stateMutability": "nonpayable",
      "type": "function"
    },
    {
      "inputs": [
        {
          "internalType": "uint256",
          "name": "tokenId",
          "type": "uint256"
        },
        {
          "internalType": "uint256",
          "name": "newValueBRL",
          "type": "uint256"
        },
        {
          "internalType": "uint256",
          "name": "newValueWei",
          "type": "uint256"
        }
      ],
      "name": "updatePropertyValue",
      "outputs": [],
      "stateMutability": "nonpayable",
      "type": "function"
    },
    {
      "inputs": [
        {
          "internalType": "uint256",
          "name": "tokenId",
          "type": "uint256"
        }
      ],
      "name": "verifyProperty",
      "outputs": [],
      "stateMutability": "nonpayable",
      "type": "function"
    },
    {
      "inputs": [],
      "name": "vinculoContract",
      "outputs": [
        {
          "internalType": "address",
          "name": "",
          "type": "address"
        }
      ],
      "stateMutability": "view",
      "type": "function"
    }
  ],
  "bytecode": "0x60803462000390576001600160401b0390604090808201838111828210176200037a578252601b81526020917f56696e63756c6f2050726f706572747920436f6c6c61746572616c000000000083830152805193818501858110828211176200037a578252600585526405650524f560dc1b8486015282518181116200037a576000948554916001958684811c941680156200036f575b838510146200035b578190601f9485811162000308575b508390858311600114620002a457899262000298575b5050600019600383901b1c191690861b1786555b8651928311620002845784548581811c9116801562000279575b8282101462000265578281116200021d575b5080918311600114620001b4575084958293949592620001a8575b5050600019600383901b1c191690831b1782555b3315620001915760078054336001600160a01b03198216811790925591519390916001600160a01b0316907f8be0079c531659141344cd1fd0a4f28419497f9722a3daafe3b4186f6b6457e09080a3600855612f689081620003968239f35b51631e4fbdf760e01b815260048101839052602490fd5b0151905038806200011e565b90601f198316968587528287209287905b898210620002055750508386979896959610620001eb575b505050811b01825562000132565b015160001960f88460031b161c19169055388080620001dd565b808885968294968601518155019501930190620001c5565b8587528187208380860160051c8201928487106200025b575b0160051c019086905b8281106200024f57505062000103565b8881550186906200023f565b9250819262000236565b634e487b7160e01b87526022600452602487fd5b90607f1690620000f1565b634e487b7160e01b86526041600452602486fd5b015190503880620000c3565b898052848a208994509190601f1984168b5b87828210620002f15750508411620002d7575b505050811b018655620000d7565b015160001960f88460031b161c19169055388080620002c9565b8385015186558c97909501949384019301620002b6565b9091508880528389208580850160051c82019286861062000351575b918a91869594930160051c01915b82811062000342575050620000ad565b8b81558594508a910162000332565b9250819262000324565b634e487b7160e01b88526022600452602488fd5b93607f169362000096565b634e487b7160e01b600052604160045260246000fd5b600080fdfe608080604052600436101561001357600080fd5b60003560e01c90816301ffc9a7146125ad5750806306fdde031461250a578063081812fc146124cc578063095ea7b3146123e55780630b3bce20146123c757806317d7613b146123485780631d6288471461231f5780631f29b2ae146116d557806323b872dd146116be5780632bd05c631461162557806332665ffb14611413578063357be446146113f55780634212a8ae1461130757806342842e0e146112d95780636352211e146112a957806367dc6fb3146111b45780636e500f6914610ec057806370a0823114610e67578063715018a614610e0a578063718e120b14610dae57806387974fa714610c785780638da5cb5b14610c4f5780638f48bd5b14610bf757806395d89b4114610b18578063a22cb46514610a6a578063aa45670514610875578063b88d4fde14610809578063c59d4847146107da578063c87b56dd1461077d578063cb644897146106c9578063cc2005411461044e578063e985e9c5146103f8578063eb509b4d14610350578063f2fde38b146102c75763f7b10808146101a057600080fd5b346102c25760203660031901126102c257600435600052600b60205260406000206101ca81612858565b6101d660018301612858565b91600160a01b60019003600282015416906003810154906004810154600582016101ff90612858565b61020b60068401612858565b61021760078501612858565b91600885015460ff1696600986015494600a87015496600b015460ff16976040519b8c9b8c6101808091528d0161024d91612655565b8c810360208e015261025e91612655565b9260408c015260608b015260808a015288810360a08a015261027f91612655565b87810360c089015261029091612655565b86810360e08801526102a191612655565b93151561010086015261012085015261014084015215156101608301520390f35b600080fd5b346102c25760203660031901126102c2576102e061267a565b6102e86128fe565b6001600160a01b0390811690811561033757600754826001600160601b0360a01b821617600755167f8be0079c531659141344cd1fd0a4f28419497f9722a3daafe3b4186f6b6457e0600080a3005b604051631e4fbdf760e01b815260006004820152602490fd5b346102c25760603660031901126102c2576004357fb81fb1b9c3e849f4e3093fa0881fd5c6f32904683c451d8c861c77b45d491ae360406024356103926128fe565b83600052600b60205281600020906103af600a8301541515612d0d565b60038201918183549360ff6008840154166103db575b55600460443591015582519182526020820152a2005b6103f0826103eb87600f54612dd2565b612d69565b600f556103c5565b346102c25760403660031901126102c25761041161267a565b610419612690565b9060018060a01b03809116600052600560205260406000209116600052602052602060ff604060002054166040519015158152f35b346102c25761045c366126a6565b61046582612b58565b6001600160a01b039033908216036106845782600052602090600b825260ff600860406000200154166106305783600052600b8252604060002060ff600b82015416156105d95760038160086104d19301600160ff198254161790558560098201550154600f54612d69565b600f556040516104e08161270a565b848152828101928484526040820133815260608301428152608084019160008352600e60a0860194600186528a6000525260406000208054600160401b8110156105c357610533916001820181556126bc565b9690966105ad5761058497600596518855516001880155600287019151166001600160601b0360a01b82541617905551600385015551600484015551151591019060ff801983541691151516179055565b33917f5bb660a11bad0e2f536ffaef18910b9f549f95872acc99e1e1f45888e06f0245600080a4005b634e487b7160e01b600052600060045260246000fd5b634e487b7160e01b600052604160045260246000fd5b60405162461bcd60e51b815260048101849052602960248201527f50726f7065727479436f6c6c61746572616c3a2070726f7065727479206e6f74604482015268081d995c9a599a595960ba1b6064820152608490fd5b60405162461bcd60e51b815260048101839052602660248201527f50726f7065727479436f6c6c61746572616c3a2070726f7065727479206973206044820152651b1bd8dad95960d21b6064820152608490fd5b60405162461bcd60e51b815260206004820152601d60248201527f50726f7065727479436f6c6c61746572616c3a206e6f74206f776e65720000006044820152606490fd5b346102c2576020806003193601126102c2576001600160a01b036106eb61267a565b16600052600d8152604060002060405190818382549182815201908192600052846000209060005b8682821061076957868661072982880383612740565b604051928392818401908285525180915260408401929160005b82811061075257505050500390f35b835185528695509381019392810192600101610743565b835485529093019260019283019201610713565b346102c25760203660031901126102c25760043561079a81612b58565b5060005260066020526107d66107b36040600020612858565b60006040516107c181612725565b52604051918291602083526020830190612655565b0390f35b346102c25760003660031901126102c2576060601054600f546009549060405192835260208301526040820152f35b346102c25760803660031901126102c25761082261267a565b61082a612690565b90604435606435926001600160401b0384116102c257366023850112156102c25761086261087394369060248160040135910161277c565b9261086e83838361292a565b612b93565b005b346102c257610883366126a6565b9080600052600b6020526108a160ff60086040600020015416612d76565b6000818152600b602052604090206002810154336001600160a01b0391821614908115610a5b575b8115610a4d575b50156109fd576009810190838254036109a6576003816000600861090594019460ff1995868154169055550154600f54612dd2565b600f5581600052600e602052604060002080549081610949575b5050507fa02de8643090d9440c8dfed2e6893a71f08ef2301f1c6671a4a1e2b9a7a415df600080a3005b600019918083019081116109905761096190826126bc565b50600442910155805491820191821161099057600591610980916126bc565b500190815416905582808061091f565b634e487b7160e01b600052601160045260246000fd5b60405162461bcd60e51b815260206004820152602960248201527f50726f7065727479436f6c6c61746572616c3a2077726f6e672072656e74616c6044820152680818dbdb9d1c9858dd60ba1b6064820152608490fd5b60405162461bcd60e51b815260206004820152602260248201527f50726f7065727479436f6c6c61746572616c3a206e6f7420617574686f72697a604482015261195960f21b6064820152608490fd5b9050600754163314846108d0565b809150600a54163314906108c9565b346102c25760403660031901126102c257610a8361267a565b60243590811515908183036102c2576001600160a01b0316918215610aff57610ad19033600052600560205260406000208460005260205260406000209060ff801983541691151516179055565b6040519081527f17307eab39ab6107e8899845ad3d59bd9653f200f220920489ca2b5937696c3160203392a3005b604051630b61174360e31b815260048101849052602490fd5b346102c25760003660031901126102c25760405160006001805490610b3c8261281e565b80855291818116908115610bd05750600114610b77575b6107d684610b6381860382612740565b604051918291602083526020830190612655565b600081815292507fb10e2d527612073b26eecdfd717e6a320cf44b4afac2b0732d9fcbe2b7fa0cf65b828410610bb8575050508101602001610b6382610b53565b80546020858701810191909152909301928101610ba0565b60ff191660208087019190915292151560051b85019092019250610b639150839050610b53565b346102c25760403660031901126102c257610c1061267a565b6001600160a01b03166000908152600d60205260409020805460243591908210156102c257602091610c4191612806565b90546040519160031b1c8152f35b346102c25760003660031901126102c2576007546040516001600160a01b039091168152602090f35b346102c2576020806003193601126102c257600435600052600e815260406000209081546001600160401b0381116105c357604051906005610cbe8483831b0184612740565b81835260009485528385208484019591865b848410610d4f57604080518881528751818a018190528a928201908a60005b828110610cfc5784840385f35b85518051855280830151858401526040808201516001600160a01b031690860152606080820151908601526080808201519086015260a0908101511515908501529481019460c090930192600101610cef565b600687600192604051610d618161270a565b865481528487015483820152848060a01b036002880154166040820152600387015460608201526004870154608082015260ff8688015416151560a0820152815201930193019291610cd0565b346102c25760203660031901126102c2576004356001600160401b0381116102c257610df76020610de4819336906004016127b3565b8160405193828580945193849201612632565b8101600c81520301902054604051908152f35b346102c25760003660031901126102c257610e236128fe565b600780546001600160a01b031981169091556000906001600160a01b03167f8be0079c531659141344cd1fd0a4f28419497f9722a3daafe3b4186f6b6457e08280a3005b346102c25760203660031901126102c2576001600160a01b03610e8861267a565b168015610ea75760005260036020526020604060002054604051908152f35b6040516322718ad960e21b815260006004820152602490fd5b346102c25760603660031901126102c257600435610edc612690565b906002600854146111a2576002600855806000526020600b8152610f0a60ff60086040600020015416612d76565b600a546001600160a01b0390811633148015611195575b156111385782600052600b825260406000209160028301828154169280871696871561111f5786610f5191612ddf565b90811680610f7257604051637e27328960e01b815260048101889052602490fd5b9380959694036110ed575080546001600160a01b0319168617905560088401805460ff1916905560006009850155600393840154600f54610fb39190612dd2565b600f5582600052600d815260406000209360005b8554808210156110c05784610fdc8389612806565b905490851b1c14610ff65750610ff190612cdb565b610fc7565b9495939460001994918186019182116109905761102661101961103f9385612806565b905490861b1c9184612806565b90919082549060031b91821b91600019901b1916179055565b80549384156110aa57807f6b509b423413378144cf3e8572c1abb8083032fe3c23f0b47b18e76530aa17459501926110778484612806565b81939154921b1b19169055555b84600052600d815261109a836040600020612cea565b6040516044358152a46001600855005b634e487b7160e01b600052603160045260246000fd5b5050507f6b509b423413378144cf3e8572c1abb8083032fe3c23f0b47b18e76530aa174591929350611084565b6040516364283d7b60e01b81526001600160a01b03868116600483015260248201869052919091166044820152606490fd5b604051633250574960e11b815260006004820152602490fd5b60405162461bcd60e51b815260048101839052602f60248201527f50726f7065727479436f6c6c61746572616c3a206e6f7420617574686f72697a60448201526e656420746f206c697175696461746560881b6064820152608490fd5b5080600754163314610f21565b604051633ee5aeb560e01b8152600490fd5b346102c25760203660031901126102c257600435600052600b602052602061016060406000206040516111e6816126ee565b6111ef82612858565b81526111fd60018301612858565b8185015260028201546001600160a01b03166040820152600382015460608201526004820154608082015261123460058301612858565b60a082015261124560068301612858565b60c082015261125660078301612858565b60e082015260ff600b81600885015416159384156101008501526009810154610120850152600a81015461014085015201541615159283910152816112a1575b506040519015158152f35b905082611296565b346102c25760203660031901126102c25760206112c7600435612b58565b6040516001600160a01b039091168152f35b346102c2576108736112ea366127d1565b90604051926112f884612725565b6000845261086e83838361292a565b346102c25760203660031901126102c2576004356113236128fe565b600081815260026020526040902054611346906001600160a01b03161515612d0d565b80600052600b60205260ff600b60406000200154166113a45780600052600b602052600b604060002001600160ff1982541617905533907f791049df3faadbda0c00ec3e469ce592f100f0d6664511fa7ac1ab33bf0aafda600080a3005b60405162461bcd60e51b8152602060048201526024808201527f50726f7065727479436f6c6c61746572616c3a20616c72656164792076657269604482015263199a595960e21b6064820152608490fd5b346102c25760003660031901126102c2576020600f54604051908152f35b346102c25760203660031901126102c2576000610160604051611435816126ee565b6060815260606020820152826040820152826060820152826080820152606060a0820152606060c0820152606060e08201528261010082015282610120820152826101408201520152600435600052600b602052604060002060ff600b6040519261149f846126ee565b6114a881612858565b84526114b660018201612858565b602085015260028101546001600160a01b0316604085015260038101546060850152600481015460808501526114ee60058201612858565b60a08501526114ff60068201612858565b60c085015261151060078201612858565b60e08501528260088201541615156101008501526009810154610120850152600a81015461014085015201541615156101608201526040518091602082526101606115f261156c835161018060208701526101a0860190612655565b6115dc6115c861158e602087015193601f1994858a83030160408b0152612655565b60018060a01b03604088015116606089015260608701516080890152608087015160a089015260a0870151848983030160c08a0152612655565b60c0860151838883030160e0890152612655565b9060e08501519086830301610100870152612655565b91610100810151151561012085015261012081015161014085015261014081015182850152015115156101808301520390f35b346102c25760203660031901126102c25761163e61267a565b6116466128fe565b6001600160a01b0316801561166d576001600160601b0360a01b600a541617600a55600080f35b60405162461bcd60e51b815260206004820152602360248201527f50726f7065727479436f6c6c61746572616c3a20696e76616c6964206164647260448201526265737360e81b6064820152608490fd5b346102c2576108736116cf366127d1565b9161292a565b346102c25760e03660031901126102c2576004356001600160401b0381116102c2576117059036906004016127b3565b6024356001600160401b0381116102c2576117249036906004016127b3565b906084356001600160401b0381116102c2576117449036906004016127b3565b9060a4356001600160401b0381116102c2576117649036906004016127b3565b60c4356001600160401b0381116102c2576117839036906004016127b3565b928251156122cb57845115612275576044351561221d5760405160208185516117af8183858a01612632565b8101600c815203019020546121c0576117c9600954612cdb565b93846009556040516117da81612725565b60008152331561111f576001600160a01b036117f68733612ddf565b166121a757333b612088575b50846000526006602052604060002081516001600160401b0381116105c35761182b825461281e565b601f8111612044575b50806020601f8211600114611fdd57600091611fd2575b508160011b916000199060031b1c19161790555b7ff8e1a15aba9398e019f0b49df1a4fde98ee17ae345cb5f6b5e2c27f5033e8ce76020604051878152a160405195611896876126ee565b84875260208701523360408701526044356060870152606435608087015260a086015260c085015260e08401526000610100840152600061012084015242610140840152600061016084015281600052600b602052604060002083518051906001600160401b0382116105c357819061190f845461281e565b601f8111611f82575b50602090601f8311600114611f1657600092611f0b575b50508160011b916000199060031b1c19161781555b60208401518051906001600160401b0382116105c3578190611969600185015461281e565b601f8111611eb8575b50602090601f8311600114611e4657600092611e3b575b50508160011b916000199060031b1c19161760018201555b6002810160018060a01b036040860151166001600160601b0360a01b825416179055606084015160038201556080840151600482015560a08401518051906001600160401b0382116105c35781906119fc600585015461281e565b601f8111611de8575b50602090601f8311600114611d7b57600092611d70575b50508160011b916000199060031b1c19161760058201555b60c08401518051906001600160401b0382116105c3578190611a59600685015461281e565b601f8111611d1d575b50602090601f8311600114611cb057600092611ca5575b50508160011b916000199060031b1c19161760068201555b60e08401519384516001600160401b0381116105c357611ab4600784015461281e565b95601f8711611c5e575b602096508690601f8311600114611be6579282600b9361016093611b4a9796600092611bdb575b50508160011b916000199060031b1c19161760078501555b611b1d6101008201511515600886019060ff801983541691151516179055565b6101208101516009850155610140810151600a8501550151151591019060ff801983541691151516179055565b8160405184818451611b5f8183858901612632565b8101600c8152030190205533600052600d8352611b80826040600020612cea565b611b8b601054612cdb565b601055817f4a94c8d5fab40a5edfd34ed099a279029ee376bf6a571684e0cffd8e00216dbc611bc560405193604085526040850190612655565b92604435868201528033940390a3604051908152f35b015190508a80611ae5565b9060078501600052876000209160005b601f1985168110611c4757508361016093611b4a979693600193600b97601f19811610611c2e575b505050811b016007850155611afd565b015160001960f88460031b161c191690558a8080611c1e565b919289600181928685015181550194019201611bf6565b600784016000526020600020601f830160051c810160208410611c9e575b601f890160051c82018110611c92575050611abe565b60008155600101611c7c565b5080611c7c565b015190508680611a79565b600685016000908152602081209350601f198516905b818110611d055750908460019594939210611cec575b505050811b016006820155611a91565b015160001960f88460031b161c19169055868080611cdc565b92936020600181928786015181550195019301611cc6565b909150600684016000526020600020601f840160051c810160208510611d69575b90849392915b601f830160051c82018110611d5a575050611a62565b60008155859450600101611d44565b5080611d3e565b015190508680611a1c565b600585016000908152602081209350601f198516905b818110611dd05750908460019594939210611db7575b505050811b016005820155611a34565b015160001960f88460031b161c19169055868080611da7565b92936020600181928786015181550195019301611d91565b909150600584016000526020600020601f840160051c810160208510611e34575b90849392915b601f830160051c82018110611e25575050611a05565b60008155859450600101611e0f565b5080611e09565b015190508680611989565b9250600184016000526020600020906000935b601f1984168510611e9d576001945083601f19811610611e84575b505050811b0160018201556119a1565b015160001960f88460031b161c19169055868080611e74565b81810151835560209485019460019093019290910190611e59565b909150600184016000526020600020601f840160051c810160208510611f04575b90849392915b601f830160051c82018110611ef5575050611972565b60008155859450600101611edf565b5080611ed9565b01519050868061192f565b9250836000526020600020906000935b601f1984168510611f67576001945083601f19811610611f4e575b505050811b018155611944565b015160001960f88460031b161c19169055868080611f41565b81810151835560209485019460019093019290910190611f26565b909150836000526020600020601f840160051c810160208510611fcb575b90849392915b601f830160051c82018110611fbc575050611918565b60008155859450600101611fa6565b5080611fa0565b90508301518961184b565b91508260005260206000206000925b601f198316841061202c576001935082601f19811610612013575b5050811b01905561185f565b85015160001960f88460031b161c191690558980612007565b85810151825560209384019360019092019101611fec565b826000526020600020601f830160051c810160208410612081575b601f830160051c82018110612075575050611834565b6000815560010161205f565b508061205f565b60206120c39160405180938192630a85bd0160e11b8352336004840152600060248401528a6044840152608060648401526084830190612655565b03816000335af160009181612162575b5061212d573d15612126573d6120e881612761565b906120f66040519283612740565b81523d6000602083013e5b8051908161212157604051633250574960e11b8152336004820152602490fd5b602001fd5b6060612101565b6001600160e01b03191663757a42ff60e11b0161214a5786611802565b604051633250574960e11b8152336004820152602490fd5b9091506020813d60201161219f575b8161217e60209383612740565b810103126102c257516001600160e01b0319811681036102c25790886120d3565b3d9150612171565b6040516339e3563760e11b815260006004820152602490fd5b60405162461bcd60e51b815260206004820152602f60248201527f50726f7065727479436f6c6c61746572616c3a2070726f706572747920616c7260448201526e1958591e481c9959da5cdd195c9959608a1b6064820152608490fd5b60405162461bcd60e51b815260206004820152602a60248201527f50726f7065727479436f6c6c61746572616c3a2076616c7565206d75737420626044820152696520706f73697469766560b01b6064820152608490fd5b60405162461bcd60e51b815260206004820152602860248201527f50726f7065727479436f6c6c61746572616c3a20696e76616c6964207265676960448201526739ba3930ba34b7b760c11b6064820152608490fd5b60405162461bcd60e51b815260206004820152602660248201527f50726f7065727479436f6c6c61746572616c3a20696e76616c69642070726f70604482015265195c9d1e525960d21b6064820152608490fd5b346102c25760003660031901126102c257600a546040516001600160a01b039091168152602090f35b346102c257612356366126a6565b90600052600e602052604060002080548210156102c25760c091612379916126bc565b5080549060018101549060018060a01b0360028201541660038201549060ff6005600485015494015416936040519586526020860152604085015260608401526080830152151560a0820152f35b346102c25760003660031901126102c2576020601054604051908152f35b346102c25760403660031901126102c2576123fe61267a565b60243561240a81612b58565b331515806124b9575b8061248c575b612474576001600160a01b039283169282918491167f8c5be1e5ebec7d5bd14f71427d1e84f3dd0314c0f7b2291e5b200ac8c7c3b925600080a4600090815260046020526040902080546001600160a01b0319169091179055005b60405163a9fbf51f60e01b8152336004820152602490fd5b5060018060a01b038116600052600560205260406000203360005260205260ff6040600020541615612419565b506001600160a01b038116331415612413565b346102c25760203660031901126102c2576004356124e981612b58565b506000526004602052602060018060a01b0360406000205416604051908152f35b346102c25760003660031901126102c2576040516000805461252b8161281e565b80845290600190818116908115610bd05750600114612554576107d684610b6381860382612740565b600080805292507f290decd9548b62a8d60345a988386fc84ba6bc95484008f6362f93160ef3e5635b828410612595575050508101602001610b6382610b53565b8054602085870181019190915290930192810161257d565b346102c25760203660031901126102c2576004359063ffffffff60e01b82168092036102c257602091632483248360e11b81149081156125ef575b5015158152f35b6380ac58cd60e01b811491508115612621575b8115612610575b50836125e8565b6301ffc9a760e01b14905083612609565b635b5e139f60e01b81149150612602565b60005b8381106126455750506000910152565b8181015183820152602001612635565b9060209161266e81518092818552858086019101612632565b601f01601f1916010190565b600435906001600160a01b03821682036102c257565b602435906001600160a01b03821682036102c257565b60409060031901126102c2576004359060243590565b80548210156126d8576000526006602060002091020190600090565b634e487b7160e01b600052603260045260246000fd5b61018081019081106001600160401b038211176105c357604052565b60c081019081106001600160401b038211176105c357604052565b602081019081106001600160401b038211176105c357604052565b90601f801991011681019081106001600160401b038211176105c357604052565b6001600160401b0381116105c357601f01601f191660200190565b92919261278882612761565b916127966040519384612740565b8294818452818301116102c2578281602093846000960137010152565b9080601f830112156102c2578160206127ce9335910161277c565b90565b60609060031901126102c2576001600160a01b039060043582811681036102c2579160243590811681036102c2579060443590565b80548210156126d85760005260206000200190600090565b90600182811c9216801561284e575b602083101461283857565b634e487b7160e01b600052602260045260246000fd5b91607f169161282d565b906040519182600082549261286c8461281e565b9081845260019485811690816000146128db5750600114612898575b505061289692500383612740565b565b9093915060005260209081600020936000915b8183106128c357505061289693508201013880612888565b855488840185015294850194879450918301916128ab565b91505061289694506020925060ff191682840152151560051b8201013880612888565b6007546001600160a01b0316330361291257565b60405163118cdaa760e01b8152336004820152602490fd5b906001600160a01b03908116801561111f576000918483528460209260028452604093838587205416151580612b50575b612ad4575b8286526002815283858720541695869133151580612a3e575b509060027fddf252ad1be2c89b69c2b068fc378daa952ba7f163c4a11628f55a4df523b3ef9284612a0b575b85835260038152888320805460010190558683525286812080546001600160a01b0319168517905580a4831682036129dd5750505050565b516364283d7b60e01b81526001600160a01b0392831660048201526024810193909352166044820152606490fd5b600087815260046020526040902080546001600160a01b03191690558483526003815288832080546000190190556129a5565b91939450915080612a93575b15612a5a57879291869138612979565b848887612a77576024915190637e27328960e01b82526004820152fd5b604491519063177e802f60e01b82523360048301526024820152fd5b503386148015612ab8575b80612a4a5750878252600481523384868420541614612a4a565b5085825260058152848220338352815260ff8583205416612a9e565b909150600b815260ff6008858720015416612af157908691612960565b60849084519062461bcd60e51b82526004820152603360248201527f50726f7065727479436f6c6c61746572616c3a2063616e6e6f74207472616e73604482015272666572206c6f636b65642070726f706572747960681b6064820152fd5b50600161295b565b6000818152600260205260409020546001600160a01b0316908115612b7b575090565b60249060405190637e27328960e01b82526004820152fd5b813b612ba0575b50505050565b604051630a85bd0160e11b8082523360048301526001600160a01b03928316602483015260448201949094526080606482015260209592909116939092908390612bee906084830190612655565b039285816000958187895af1849181612c97575b50612c62575050503d600014612c5a573d612c1c81612761565b90612c2a6040519283612740565b81528091843d92013e5b80519283612c5557604051633250574960e11b815260048101849052602490fd5b019050fd5b506060612c34565b919450915063ffffffff60e01b1603612c7f575038808080612b9a565b60249060405190633250574960e11b82526004820152fd5b9091508681813d8311612cd4575b612caf8183612740565b81010312612cd057516001600160e01b031981168103612cd0579038612c02565b8480fd5b503d612ca5565b60001981146109905760010190565b90815491600160401b8310156105c3578261102691600161289695018155612806565b15612d1457565b60405162461bcd60e51b815260206004820152602760248201527f50726f7065727479436f6c6c61746572616c3a2070726f7065727479206e6f746044820152662065786973747360c81b6064820152608490fd5b9190820180921161099057565b15612d7d57565b60405162461bcd60e51b815260206004820152602760248201527f50726f7065727479436f6c6c61746572616c3a2070726f7065727479206e6f74604482015266081b1bd8dad95960ca1b6064820152608490fd5b9190820391821161099057565b6000828152600260209081526040808320546001600160a01b039594929391908616151580612f27575b612eb5575b907fddf252ad1be2c89b69c2b068fc378daa952ba7f163c4a11628f55a4df523b3ef9185825260028552600287828420541697889586612e82575b169586612e6c575b87845252812080546001600160a01b0319168517905580a490565b8684526003815282842060018154019055612e51565b600089815260046020526040902080546001600160a01b0319169055868552600388528385208054600019019055612e49565b600b845260ff600882842001541615612e0e575162461bcd60e51b815260048101849052603360248201527f50726f7065727479436f6c6c61746572616c3a2063616e6e6f74207472616e73604482015272666572206c6f636b65642070726f706572747960681b6064820152608490fd5b508583161515612e0956fea26469706673582212206292c35d173d2f45f585633a463b246bb86c77d247abe49befd9267bdabb208264736f6c63430008140033",
  "linkReferences": {},
  "deployedLinkReferences": {}
}