{
  "_format": "hh-sol-artifact-1",
  "contractName": "VinculoP2P",
  "sourceName": "src/VinculoP2P.sol",
  "abi": [
    {
      "inputs": [
        {
          "internalType": "address",
          "name": "_treasury",
          "type": "address"
        },
        {
          "internalType": "address",
          "name": "_stablecoin",
          "type": "address"
        }
      ],
      "stateMutability": "nonpayable",
      "type": "constructor"
    },
    {
      "inputs": [],
      "name": "AccessControlBadConfirmation",
      "type": "error"
    },
    {
      "inputs": [
        {
          "internalType": "address",
          "name": "account",
          "type": "address"
        },
        {
          "internalType": "bytes32",
          "name": "neededRole",
          "type": "bytes32"
        }
      ],
      "name": "AccessControlUnauthorizedAccount",
      "type": "error"
    },
    {
      "inputs": [
        {
          "internalType": "address",
          "name": "target",
          "type": "address"
        }
      ],
      "name": "AddressEmptyCode",
      "type": "error"
    },
    {
      "inputs": [
        {
          "internalType": "address",
          "name": "account",
          "type": "address"
        }
      ],
      "name": "AddressInsufficientBalance",
      "type": "error"
    },
    {
      "inputs": [],
      "name": "EnforcedPause",
      "type": "error"
    },
    {
      "inputs": [],
      "name": "ExpectedPause",
      "type": "error"
    },
    {
      "inputs": [],
      "name": "FailedInnerCall",
      "type": "error"
    },
    {
      "inputs": [
        {
          "internalType": "address",
          "name": "owner",
          "type": "address"
        }
      ],
      "name": "OwnableInvalidOwner",
      "type": "error"
    },
    {
      "inputs": [
        {
          "internalType": "address",
          "name": "account",
          "type": "address"
        }
      ],
      "name": "OwnableUnauthorizedAccount",
      "type": "error"
    },
    {
      "inputs": [],
      "name": "ReentrancyGuardReentrantCall",
      "type": "error"
    },
    {
      "inputs": [
        {
          "internalType": "address",
          "name": "token",
          "type": "address"
        }
      ],
      "name": "SafeERC20FailedOperation",
      "type": "error"
    },
    {
      "anonymous": false,
      "inputs": [
        {
          "indexed": true,
          "internalType": "uint256",
          "name": "listingId",
          "type": "uint256"
        },
        {
          "indexed": true,
          "internalType": "address",
          "name": "seller",
          "type": "address"
        }
      ],
      "name": "ListingCancelled",
      "type": "event"
    },
    {
      "anonymous": false,
      "inputs": [
        {
          "indexed": true,
          "internalType": "uint256",
          "name": "listingId",
          "type": "uint256"
        },
        {
          "indexed": true,
          "internalType": "address",
          "name": "seller",
          "type": "address"
        },
        {
          "indexed": false,
          "internalType": "address",
          "name": "nftContract",
          "type": "address"
        },
        {
          "indexed": false,
          "internalType": "uint256",
          "name": "tokenId",
          "type": "uint256"
        },
        {
          "indexed": false,
          "internalType": "uint256",
          "name": "priceNative",
          "type": "uint256"
        },
        {
          "indexed": false,
          "internalType": "uint256",
          "name": "priceStable",
          "type": "uint256"
        },
        {
          "indexed": false,
          "internalType": "string",
          "name": "contractRef",
          "type": "string"
        }
      ],
      "name": "ListingCreated",
      "type": "event"
    },
    {
      "anonymous": false,
      "inputs": [
        {
          "indexed": true,
          "internalType": "address",
          "name": "previousOwner",
          "type": "address"
        },
        {
          "indexed": true,
          "internalType": "address",
          "name": "newOwner",
          "type": "address"
        }
      ],
      "name": "OwnershipTransferred",
      "type": "event"
    },
    {
      "anonymous": false,
      "inputs": [
        {
          "indexed": false,
          "internalType": "address",
          "name": "account",
          "type": "address"
        }
      ],
      "name": "Paused",
      "type": "event"
    },
    {
      "anonymous": false,
      "inputs": [
        {
          "indexed": false,
          "internalType": "uint256",
          "name": "oldFee",
          "type": "uint256"
        },
        {
          "indexed": false,
          "internalType": "uint256",
          "name": "newFee",
          "type": "uint256"
        }
      ],
      "name": "PlatformFeeUpdated",
      "type": "event"
    },
    {
      "anonymous": false,
      "inputs": [
        {
          "indexed": true,
          "internalType": "bytes32",
          "name": "role",
          "type": "bytes32"
        },
        {
          "indexed": true,
          "internalType": "bytes32",
          "name": "previousAdminRole",
          "type": "bytes32"
        },
        {
          "indexed": true,
          "internalType": "bytes32",
          "name": "newAdminRole",
          "type": "bytes32"
        }
      ],
      "name": "RoleAdminChanged",
      "type": "event"
    },
    {
      "anonymous": false,
      "inputs": [
        {
          "indexed": true,
          "internalType": "bytes32",
          "name": "role",
          "type": "bytes32"
        },
        {
          "indexed": true,
          "internalType": "address",
          "name": "account",
          "type": "address"
        },
        {
          "indexed": true,
          "internalType": "address",
          "name": "sender",
          "type": "address"
        }
      ],
      "name": "RoleGranted",
      "type": "event"
    },
    {
      "anonymous": false,
      "inputs": [
        {
          "indexed": true,
          "internalType": "bytes32",
          "name": "role",
          "type": "bytes32"
        },
        {
          "indexed": true,
          "internalType": "address",
          "name": "account",
          "type": "address"
        },
        {
          "indexed": true,
          "internalType": "address",
          "name": "sender",
          "type": "address"
        }
      ],
      "name": "RoleRevoked",
      "type": "event"
    },
    {
      "anonymous": false,
      "inputs": [
        {
          "indexed": true,
          "internalType": "uint256",
          "name": "listingId",
          "type": "uint256"
        },
        {
          "indexed": true,
          "internalType": "address",
          "name": "seller",
          "type": "address"
        },
        {
          "indexed": true,
          "internalType": "address",
          "name": "buyer",
          "type": "address"
        },
        {
          "indexed": false,
          "internalType": "uint256",
          "name": "price",
          "type": "uint256"
        },
        {
          "indexed": false,
          "internalType": "enum VinculoP2P.PaymentMethod",
          "name": "paymentMethod",
          "type": "uint8"
        },
        {
          "indexed": false,
          "internalType": "uint256",
          "name": "platformFee",
          "type": "uint256"
        }
      ],
      "name": "Sale",
      "type": "event"
    },
    {
      "anonymous": false,
      "inputs": [
        {
          "indexed": false,
          "internalType": "address",
          "name": "oldToken",
          "type": "address"
        },
        {
          "indexed": false,
          "internalType": "address",
          "name": "newToken",
          "type": "address"
        }
      ],
      "name": "StablecoinUpdated",
      "type": "event"
    },
    {
      "anonymous": false,
      "inputs": [
        {
          "indexed": false,
          "internalType": "address",
          "name": "oldTreasury",
          "type": "address"
        },
        {
          "indexed": false,
          "internalType": "address",
          "name": "newTreasury",
          "type": "address"
        }
      ],
      "name": "TreasuryUpdated",
      "type": "event"
    },
    {
      "anonymous": false,
      "inputs": [
        {
          "indexed": false,
          "internalType": "address",
          "name": "account",
          "type": "address"
        }
      ],
      "name": "Unpaused",
      "type": "event"
    },
    {
      "inputs": [],
      "name": "DEFAULT_ADMIN_ROLE",
      "outputs": [
        {
          "internalType": "bytes32",
          "name": "",
          "type": "bytes32"
        }
      ],
      "stateMutability": "view",
      "type": "function"
    },
    {
      "inputs": [],
      "name": "OPERATOR_ROLE",
      "outputs": [
        {
          "internalType": "bytes32",
          "name": "",
          "type": "bytes32"
        }
      ],
      "stateMutability": "view",
      "type": "function"
    },
    {
      "inputs": [
        {
          "internalType": "uint256",
          "name": "_listingId",
          "type": "uint256"
        }
      ],
      "name": "buyWithNative",
      "outputs": [],
      "stateMutability": "payable",
      "type": "function"
    },
    {
      "inputs": [
        {
          "internalType": "uint256",
          "name": "_listingId",
          "type": "uint256"
        }
      ],
      "name": "buyWithStable",
      "outputs": [],
      "stateMutability": "nonpayable",
      "type": "function"
    },
    {
      "inputs": [
        {
          "internalType": "address",
          "name": "",
          "type": "address"
        },
        {
          "internalType": "uint256",
          "name": "",
          "type": "uint256"
        }
      ],
      "name": "buyerPurchases",
      "outputs": [
        {
          "internalType": "uint256",
          "name": "",
          "type": "uint256"
        }
      ],
      "stateMutability": "view",
      "type": "function"
    },
    {
      "inputs": [
        {
          "internalType": "uint256",
          "name": "_listingId",
          "type": "uint256"
        }
      ],
      "name": "cancelListing",
      "outputs": [],
      "stateMutability": "nonpayable",
      "type": "function"
    },
    {
      "inputs": [
        {
          "internalType": "address",
          "name": "_nftContract",
          "type": "address"
        },
        {
          "internalType": "uint256",
          "name": "_tokenId",
          "type": "uint256"
        },
        {
          "internalType": "uint256",
          "name": "_amount",
          "type": "uint256"
        },
        {
          "internalType": "uint256",
          "name": "_priceNative",
          "type": "uint256"
        },
        {
          "internalType": "uint256",
          "name": "_priceStable",
          "type": "uint256"
        },
        {
          "internalType": "string",
          "name": "_contractRef",
          "type": "string"
        }
      ],
      "name": "createListing",
      "outputs": [
        {
          "internalType": "uint256",
          "name": "",
          "type": "uint256"
        }
      ],
      "stateMutability": "nonpayable",
      "type": "function"
    },
    {
      "inputs": [
        {
          "internalType": "address",
          "name": "buyer",
          "type": "address"
        }
      ],
      "name": "getBuyerPurchases",
      "outputs": [
        {
          "internalType": "uint256[]",
          "name": "",
          "type": "uint256[]"
        }
      ],
      "stateMutability": "view",
      "type": "function"
    },
    {
      "inputs": [
        {
          "internalType": "uint256",
          "name": "listingId",
          "type": "uint256"
        }
      ],
      "name": "getListing",
      "outputs": [
        {
          "components": [
            {
              "internalType": "uint256",
              "name": "listingId",
              "type": "uint256"
            },
            {
              "internalType": "address",
              "name": "seller",
              "type": "address"
            },
            {
              "internalType": "address",
              "name": "nftContract",
              "type": "address"
            },
            {
              "internalType": "uint256",
              "name": "tokenId",
              "type": "uint256"
            },
            {
              "internalType": "uint256",
              "name": "amount",
              "type": "uint256"
            },
            {
              "internalType": "uint256",
              "name": "priceNative",
              "type": "uint256"
            },
            {
              "internalType": "uint256",
              "name": "priceStable",
              "type": "uint256"
            },
            {
              "internalType": "bool",
              "name": "acceptsNative",
              "type": "bool"
            },
            {
              "internalType": "bool",
              "name": "acceptsStable",
              "type": "bool"
            },
            {
              "internalType": "enum VinculoP2P.ListingStatus",
              "name": "status",
              "type": "uint8"
            },
            {
              "internalType": "uint256",
              "name": "createdAt",
              "type": "uint256"
            },
            {
              "internalType": "uint256",
              "name": "soldAt",
              "type": "uint256"
            },
            {
              "internalType": "address",
              "name": "buyer",
              "type": "address"
            },
            {
              "internalType": "string",
              "name": "contractRef",
              "type": "string"
            }
          ],
          "internalType": "struct VinculoP2P.Listing",
          "name": "",
          "type": "tuple"
        }
      ],
      "stateMutability": "view",
      "type": "function"
    },
    {
      "inputs": [
        {
          "internalType": "bytes32",
          "name": "role",
          "type": "bytes32"
        }
      ],
      "name": "getRoleAdmin",
      "outputs": [
        {
          "internalType": "bytes32",
          "name": "",
          "type": "bytes32"
        }
      ],
      "stateMutability": "view",
      "type": "function"
    },
    {
      "inputs": [
        {
          "internalType": "address",
          "name": "seller",
          "type": "address"
        }
      ],
      "name": "getSellerListings",
      "outputs": [
        {
          "internalType": "uint256[]",
          "name": "",
          "type": "uint256[]"
        }
      ],
      "stateMutability": "view",
      "type": "function"
    },
    {
      "inputs": [],
      "name": "getStats",
      "outputs": [
        {
          "internalType": "uint256",
          "name": "_totalListings",
          "type": "uint256"
        },
        {
          "internalType": "uint256",
          "name": "_totalSales",
          "type": "uint256"
        },
        {
          "internalType": "uint256",
          "name": "_totalVolumeNative",
          "type": "uint256"
        },
        {
          "internalType": "uint256",
          "name": "_totalVolumeStable",
          "type": "uint256"
        },
        {
          "internalType": "uint256",
          "name": "_platformFeePercent",
          "type": "uint256"
        }
      ],
      "stateMutability": "view",
      "type": "function"
    },
    {
      "inputs": [
        {
          "internalType": "bytes32",
          "name": "role",
          "type": "bytes32"
        },
        {
          "internalType": "address",
          "name": "account",
          "type": "address"
        }
      ],
      "name": "grantRole",
      "outputs": [],
      "stateMutability": "nonpayable",
      "type": "function"
    },
    {
      "inputs": [
        {
          "internalType": "bytes32",
          "name": "role",
          "type": "bytes32"
        },
        {
          "internalType": "address",
          "name": "account",
          "type": "address"
        }
      ],
      "name": "hasRole",
      "outputs": [
        {
          "internalType": "bool",
          "name": "",
          "type": "bool"
        }
      ],
      "stateMutability": "view",
      "type": "function"
    },
    {
      "inputs": [
        {
          "internalType": "uint256",
          "name": "",
          "type": "uint256"
        }
      ],
      "name": "listings",
      "outputs": [
        {
          "internalType": "uint256",
          "name": "listingId",
          "type": "uint256"
        },
        {
          "internalType": "address",
          "name": "seller",
          "type": "address"
        },
        {
          "internalType": "address",
          "name": "nftContract",
          "type": "address"
        },
        {
          "internalType": "uint256",
          "name": "tokenId",
          "type": "uint256"
        },
        {
          "internalType": "uint256",
          "name": "amount",
          "type": "uint256"
        },
        {
          "internalType": "uint256",
          "name": "priceNative",
          "type": "uint256"
        },
        {
          "internalType": "uint256",
          "name": "priceStable",
          "type": "uint256"
        },
        {
          "internalType": "bool",
          "name": "acceptsNative",
          "type": "bool"
        },
        {
          "internalType": "bool",
          "name": "acceptsStable",
          "type": "bool"
        },
        {
          "internalType": "enum VinculoP2P.ListingStatus",
          "name": "status",
          "type": "uint8"
        },
        {
          "internalType": "uint256",
          "name": "createdAt",
          "type": "uint256"
        },
        {
          "internalType": "uint256",
          "name": "soldAt",
          "type": "uint256"
        },
        {
          "internalType": "address",
          "name": "buyer",
          "type": "address"
        },
        {
          "internalType": "string",
          "name": "contractRef",
          "type": "string"
        }
      ],
      "stateMutability": "view",
      "type": "function"
    },
    {
      "inputs": [
        {
          "internalType": "address",
          "name": "",
          "type": "address"
        },
        {
          "internalType": "address",
          "name": "",
          "type": "address"
        },
        {
          "internalType": "uint256[]",
          "name": "",
          "type": "uint256[]"
        },
        {
          "internalType": "uint256[]",
          "name": "",
          "type": "uint256[]"
        },
        {
          "internalType": "bytes",
          "name": "",
          "type": "bytes"
        }
      ],
      "name": "onERC1155BatchReceived",
      "outputs": [
        {
          "internalType": "bytes4",
          "name": "",
          "type": "bytes4"
        }
      ],
      "stateMutability": "nonpayable",
      "type": "function"
    },
    {
      "inputs": [
        {
          "internalType": "address",
          "name": "",
          "type": "address"
        },
        {
          "internalType": "address",
          "name": "",
          "type": "address"
        },
        {
          "internalType": "uint256",
          "name": "",
          "type": "uint256"
        },
        {
          "internalType": "uint256",
          "name": "",
          "type": "uint256"
        },
        {
          "internalType": "bytes",
          "name": "",
          "type": "bytes"
        }
      ],
      "name": "onERC1155Received",
      "outputs": [
        {
          "internalType": "bytes4",
          "name": "",
          "type": "bytes4"
        }
      ],
      "stateMutability": "nonpayable",
      "type": "function"
    },
    {
      "inputs": [],
      "name": "owner",
      "outputs": [
        {
          "internalType": "address",
          "name": "",
          "type": "address"
        }
      ],
      "stateMutability": "view",
      "type": "function"
    },
    {
      "inputs": [],
      "name": "pause",
      "outputs": [],
      "stateMutability": "nonpayable",
      "type": "function"
    },
    {
      "inputs": [],
      "name": "paused",
      "outputs": [
        {
          "internalType": "bool",
          "name": "",
          "type": "bool"
        }
      ],
      "stateMutability": "view",
      "type": "function"
    },
    {
      "inputs": [],
      "name": "platformFeePercent",
      "outputs": [
        {
          "internalType": "uint256",
          "name": "",
          "type": "uint256"
        }
      ],
      "stateMutability": "view",
      "type": "function"
    },
    {
      "inputs": [],
      "name": "renounceOwnership",
      "outputs": [],
      "stateMutability": "nonpayable",
      "type": "function"
    },
    {
      "inputs": [
        {
          "internalType": "bytes32",
          "name": "role",
          "type": "bytes32"
        },
        {
          "internalType": "address",
          "name": "callerConfirmation",
          "type": "address"
        }
      ],
      "name": "renounceRole",
      "outputs": [],
      "stateMutability": "nonpayable",
      "type": "function"
    },
    {
      "inputs": [],
      "name": "rescueNative",
      "outputs": [],
      "stateMutability": "nonpayable",
      "type": "function"
    },
    {
      "inputs": [
        {
          "internalType": "address",
          "name": "token",
          "type": "address"
        },
        {
          "internalType": "uint256",
          "name": "amount",
          "type": "uint256"
        }
      ],
      "name": "rescueTokens",
      "outputs": [],
      "stateMutability": "nonpayable",
      "type": "function"
    },
    {
      "inputs": [
        {
          "internalType": "bytes32",
          "name": "role",
          "type": "bytes32"
        },
        {
          "internalType": "address",
          "name": "account",
          "type": "address"
        }
      ],
      "name": "revokeRole",
      "outputs": [],
      "stateMutability": "nonpayable",
      "type": "function"
    },
    {
      "inputs": [
        {
          "internalType": "address",
          "name": "",
          "type": "address"
        },
        {
          "internalType": "uint256",
          "name": "",
          "type": "uint256"
        }
      ],
      "name": "sellerListings",
      "outputs": [
        {
          "internalType": "uint256",
          "name": "",
          "type": "uint256"
        }
      ],
      "stateMutability": "view",
      "type": "function"
    },
    {
      "inputs": [
        {
          "internalType": "uint256",
          "name": "_fee",
          "type": "uint256"
        }
      ],
      "name": "setPlatformFee",
      "outputs": [],
      "stateMutability": "nonpayable",
      "type": "function"
    },
    {
      "inputs": [
        {
          "internalType": "address",
          "name": "_stablecoin",
          "type": "address"
        }
      ],
      "name": "setStablecoin",
      "outputs": [],
      "stateMutability": "nonpayable",
      "type": "function"
    },
    {
      "inputs": [
        {
          "internalType": "address",
          "name": "_treasury",
          "type": "address"
        }
      ],
      "name": "setTreasury",
      "outputs": [],
      "stateMutability": "nonpayable",
      "type": "function"
    },
    {
      "inputs": [],
      "name": "stablecoin",
      "outputs": [
        {
          "internalType": "contract IERC20",
          "name": "",
          "type": "address"
        }
      ],
      "stateMutability": "view",
      "type": "function"
    },
    {
      "inputs": [
        {
          "internalType": "bytes4",
          "name": "interfaceId",
          "type": "bytes4"
        }
      ],
      "name": "supportsInterface",
      "outputs": [
        {
          "internalType": "bool",
          "name": "",
          "type": "bool"
        }
      ],
      "stateMutability": "view",
      "type": "function"
    },
    {
      "inputs": [],
      "name": "totalListings",
      "outputs": [
        {
          "internalType": "uint256",
          "name": "",
          "type": "uint256"
        }
      ],
      "stateMutability": "view",
      "type": "function"
    },
    {
      "inputs": [],
      "name": "totalSales",
      "outputs": [
        {
          "internalType": "uint256",
          "name": "",
          "type": "uint256"
        }
      ],
      "stateMutability": "view",
      "type": "function"
    },
    {
      "inputs": [],
      "name": "totalVolumeNative",
      "outputs": [
        {
          "internalType": "uint256",
          "name": "",
          "type": "uint256"
        }
      ],
      "stateMutability": "view",
      "type": "function"
    },
    {
      "inputs": [],
      "name": "totalVolumeStable",
      "outputs": [
        {
          "internalType": "uint256",
          "name": "",
          "type": "uint256"
        }
      ],
      "stateMutability": "view",
      "type": "function"
    },
    {
      "inputs": [
        {
          "internalType": "address",
          "name": "newOwner",
          "type": "address"
        }
      ],
      "name": "transferOwnership",
      "outputs": [],
      "stateMutability": "nonpayable",
      "type": "function"
    },
    {
      "inputs": [],
      "name": "treasury",
      "outputs": [
        {
          "internalType": "address",
          "name": "",
          "type": "address"
        }
      ],
      "stateMutability": "view",
      "type": "function"
    },
    {
      "inputs": [],
      "name": "unpause",
      "outputs": [],
      "stateMutability": "nonpayable",
      "type": "function"
    },
    {
      "stateMutability": "payable",
      "type": "receive"
    }
  ],
  "bytecode": "0x6080346200015657601f6200289138819003918201601f19168301916001600160401b038311848410176200015b57808492604094855283398101031262000156576200005a6020620000528362000171565b920162000171565b9033156200013d576000549160018060a01b03199233848216176000556040519060018060a01b03938491823391167f8be0079c531659141344cd1fd0a4f28419497f9722a3daafe3b4186f6b6457e0600080a3600160025560ff196003541660035560c8600855169081156200010757508360095416176009551690600a541617600a55620000ea3362000186565b50620000f63362000207565b506040516125c69081620002ab8239f35b62461bcd60e51b8152602060048201526011602482015270547265617375727920696e76616c69646f60781b6044820152606490fd5b604051631e4fbdf760e01b815260006004820152602490fd5b600080fd5b634e487b7160e01b600052604160045260246000fd5b51906001600160a01b03821682036200015657565b6001600160a01b031660008181527fa6eef7e35abe7026729641147f7915573c7e97b47efa546f5f6e3230263bcb49602052604081205490919060ff16620002035781805260016020526040822081835260205260408220600160ff198254161790553391600080516020620028718339815191528180a4600190565b5090565b6001600160a01b031660008181527f31c1e66639f421f1853aeefe8ad6b62a3b96f3287efe23106923cd924aa025c260205260408120549091907f97667070c54ef182b0f5858b034beac1b6f3089aa2d3188bb1e8929f4fa9b9299060ff16620002a55780835260016020526040832082845260205260408320600160ff1982541617905560008051602062002871833981519152339380a4600190565b50509056fe608080604052600436101561001d575b50361561001b57600080fd5b005b600090813560e01c90816301ffc9a714611d5557508063054564f014611d0d578063107a274a14611ad3578063112df5bf14611ab557806312e8e2c314611a1e578063248a9ca3146119f25780632f2ff15d146119b4578063305a67a8146117dc57806331ad36ab1461149357806334b7bfef1461143d57806336480bff1461141f57806336568abe146113d75780633e14437a146110a15780633f4ba83a146110365780635737619814610fce5780635c975abb14610fab5780635f42da0914610f3857806361d027b314610f0f5780636605ff6614610ef1578063715018a614610e975780638456cb5914610e3c57806385a3439314610dbd5780638c639a8514610d9f5780638da5cb5b14610d7857806391d1485414610d2c578063a217fddf14610d10578063bc197c8114610c82578063c59d484714610c42578063c78b616c14610c24578063d547741f14610be2578063de74e57b14610aef578063e088bfc014610a72578063e9cbd82214610a49578063f0f442601461097e578063f23a6e6114610927578063f2fde38b1461089c578063f51c722314610279578063f5b541a61461023e5763fc82f0840361000f573461023b578060031936011261023b576101eb6120dd565b8080808047335af16101fb612419565b50156102045780f35b60405162461bcd60e51b815260206004820152600f60248201526e2330b634309030b79032b73b34b0b960891b6044820152606490fd5b80fd5b503461023b578060031936011261023b5760206040517f97667070c54ef182b0f5858b034beac1b6f3089aa2d3188bb1e8929f4fa9b9298152f35b503461023b5760c036600319011261023b57610293611dc4565b9060a43567ffffffffffffffff81116108985736602382011215610898576102c5903690602481600401359101611fa8565b6102cd61232f565b6102d5612311565b604435156108485760643515918215809361083d575b156107f8578151156107b357604051627eeac760e11b815233600482015260248035908201526020816044816001600160a01b0389165afa90811561072c57829161077c575b5060443511610737576001600160a01b0384163b1561023b57604051637921219560e11b815281818061036e60443560243530336004860161227e565b0381836001600160a01b038a165af1801561072c57908291610718575b50506103986004546122b2565b9283600455604051906103aa82611ebc565b84825233602083015260018060a01b03861660408301526024356060830152604435608083015260643560a083015260843560c083015260e0820152608435151561010082015281610120820152426101408201528161016082015281610180820152826101a082015283825260056020526040822090805182556001820160018060a01b03602083015116906001600160601b0360a01b91828254161790556002830160018060a01b0360408401511682825416179055606082015160038401556080820151600484015560a0820151600584015560c082015160068401556007830160e0830151151581546101008501511515906101208601516003811015610704576101a096959493929160ff62ff000061ff009360101b1694169062ffffff1916179160081b161717905561014082015160088501556101608201516009850155600a84019060018060a01b036101808401511690825416179055015180519067ffffffffffffffff82116106f05761052a600b840154611ffd565b601f81116106a7575b50918391602097938795508890601f831160011461060a57936105a593600b8489956040957f6a1b739a7c10c70698880162e6d3828fde3ffd73c7def2d0be0c88d1c99a0b899a9986926105ff575b50508160011b916000199060031b1c1916179101555b33815260068a52206122d7565b6105b0600b546122b2565b600b556040519060018060a01b03168152602435868201526064356040820152608435606082015260a06080820152806105ef339560a0830190611e41565b0390a36001600255604051908152f35b015190503880610582565b959493929190600b8301845289842096845b601f198416811061068d575092600b600184899a6105a598957f6a1b739a7c10c70698880162e6d3828fde3ffd73c7def2d0be0c88d1c99a0b899b98604098601f19811610610674575b505050811b01910155610598565b015160001960f88460031b161c19169055388080610666565b8282015189556001909801978a9750918b01918b0161061c565b600b8401855260208520601f840160051c810191602085106106e6575b601f0160051c01905b8181106106da5750610533565b600081556001016106cd565b90915081906106c4565b634e487b7160e01b84526041600452602484fd5b634e487b7160e01b89526021600452602489fd5b61072190611eef565b61023b57803861038b565b6040513d84823e3d90fd5b60405162461bcd60e51b815260206004820152601b60248201527f53616c646f20696e737566696369656e746520646f20746f6b656e00000000006044820152606490fd5b90506020813d6020116107ab575b8161079760209383611f03565b810103126107a6575138610331565b600080fd5b3d915061078a565b60405162461bcd60e51b815260206004820152601c60248201527f5265666572656e63696120646f20636f6e747261746f2076617a6961000000006044820152606490fd5b60405162461bcd60e51b815260206004820152601a60248201527f446566696e612070656c6f206d656e6f7320756d20707265636f0000000000006044820152606490fd5b5060843515156102eb565b60405162461bcd60e51b815260206004820152602260248201527f5175616e746964616465206465766520736572206d61696f7220717565207a65604482015261726f60f01b6064820152608490fd5b5080fd5b503461023b57602036600319011261023b576108b6611dc4565b6108be612252565b6001600160a01b0390811690811561090e57600054826001600160601b0360a01b821617600055167f8be0079c531659141344cd1fd0a4f28419497f9722a3daafe3b4186f6b6457e0600080a380f35b604051631e4fbdf760e01b815260048101849052602490fd5b503461023b5760a036600319011261023b57610941611dc4565b5061094a611dda565b5060843567ffffffffffffffff81116108985761096b903690600401611fdf565b5060405163f23a6e6160e01b8152602090f35b503461023b57602036600319011261023b57610998611dc4565b6109a06120dd565b6001600160a01b038181168015610a1057600980546001600160a01b031981169092179055604080516001600160a01b0393909216831682529190921660208301527f4ab5be82436d353e61ca18726e984e561f5c1cc7c6d38b29d2553c790434705a9190819081015b0390a180f35b60405162461bcd60e51b8152602060048201526011602482015270456e64657265636f20696e76616c69646f60781b6044820152606490fd5b503461023b578060031936011261023b57600a546040516001600160a01b039091168152602090f35b503461023b57602036600319011261023b577f87e71e7eb80b6aa3c745c8fa2925b77f2843f859578c78ec22e5d4923324609d610aad611dc4565b610ab56120dd565b600a80546001600160a01b039283166001600160a01b03198216811790925560408051939091168352602083019190915281908101610a0a565b503461023b57602036600319011261023b57604060209160043581526005835220610bde81549160018060a01b0390816001820154169180600283015416610bba600384015460048501546005860154600687015491600788015493600889015496610b69600b60098c01549a600a8d0154169b01612037565b9a6040519e8f9e8f908152015260408d015260608c015260808b015260a08a015260c089015260ff8116151560e089015260ff8160081c16151561010089015260ff61012089019160101c16611e1e565b6101408601526101608501526101808401526101c0806101a0850152830190611e41565b0390f35b503461023b57604036600319011261023b57610c20600435610c02611dda565b908084526001602052610c1b6001604086200154612135565b6121db565b5080f35b503461023b578060031936011261023b576020600b54604051908152f35b503461023b578060031936011261023b5760a0600b54600c54600d54600e5490600854926040519485526020850152604084015260608301526080820152f35b503461023b5760a036600319011261023b57610c9c611dc4565b50610ca5611dda565b5067ffffffffffffffff604435818111610d0c57610cc7903690600401611f25565b50606435818111610d0c57610ce0903690600401611f25565b5060843590811161089857610cf9903690600401611fdf565b5060405163bc197c8160e01b8152602090f35b8280fd5b503461023b578060031936011261023b57602090604051908152f35b503461023b57604036600319011261023b576040610d48611dda565b9160043581526001602052209060018060a01b0316600052602052602060ff604060002054166040519015158152f35b503461023b578060031936011261023b57546040516001600160a01b039091168152602090f35b503461023b578060031936011261023b576020600854604051908152f35b503461023b57602080600319360112610898576001600160a01b03610de0611dc4565b1682526007815260408220916040518092808554928381520194835280832092905b828210610e2557610bde85610e1981890382611f03565b60405191829182611e81565b835486529485019460019384019390910190610e02565b503461023b578060031936011261023b57610e556120dd565b610e5d612311565b600160ff1960035416176003557f62e78cea01bee320cd4e420270b5ea74000d11b0c9f74754ebdbfc544b05a2586020604051338152a180f35b503461023b578060031936011261023b57610eb0612252565b600080546001600160a01b0319811682556001600160a01b03167f8be0079c531659141344cd1fd0a4f28419497f9722a3daafe3b4186f6b6457e08280a380f35b503461023b578060031936011261023b576020600c54604051908152f35b503461023b578060031936011261023b576009546040516001600160a01b039091168152602090f35b503461023b57602080600319360112610898576001600160a01b03610f5b611dc4565b1682526006815260408220916040518092808554928381520194835280832092905b828210610f9457610bde85610e1981890382611f03565b835486529485019460019384019390910190610f7d565b503461023b578060031936011261023b57602060ff600354166040519015158152f35b503461023b57604036600319011261023b57611033610feb611dc4565b610ff36120dd565b60405163a9059cbb60e01b60208201523360248083019190915235604480830191909152815290611025606483611f03565b6001600160a01b03166124ab565b80f35b503461023b578060031936011261023b5761104f6120dd565b60035460ff81161561108f5760ff19166003557f5db9ee0a495bf2e6ff9c91a7834c1ba4fdd244a5e8aa4e537bd38aeae4b073aa6020604051338152a180f35b604051638dfc202b60e01b8152600490fd5b503461023b57602080600319360112610898576004356110bf61232f565b6110c7612311565b8083526005825260408320906007820180549260ff8460101c1660038110156113c3576110f49015612350565b60ff8460081c161561137e57600a546001600160a01b03908116929091908315611339579060249392918760018301946111338587541633141561239c565b6040516370a0823160e01b815233600482015296879182905afa94851561132e5789956112ff575b50600682019687548096106112bc5790620100008a939262ff00001916179055426009820155600a8101336001600160601b0360a01b8254161790556111db6111b46127106111ac600854896123f9565b04809761240c565b6111ca8786600a54168760095416903390612456565b84600a541685875416903390612456565b826002820154169060046003820154910154823b156112b85761121992849283604051809681958294637921219560e11b845233306004860161227e565b03925af1801561072c576112a0575b5050600191338852600787526112418560408a206122d7565b61124c600c546122b2565b600c5561125c8654600e54612449565b600e55541693549460405195865285015260408401527f69b85276c28e2a27ac74dbe107214165b50f87ea4ef99c420e19fe2f2d6a8bf160603394a4600160025580f35b6112a990611eef565b6112b4578638611228565b8680fd5b8380fd5b6064896040519062461bcd60e51b825280600483015260248201527f53616c646f20696e737566696369656e746520646520537461626c65636f696e6044820152fd5b9094508781813d8311611327575b6113178183611f03565b810103126107a65751933861115b565b503d61130d565b6040513d8b823e3d90fd5b60405162461bcd60e51b815260048101889052601a60248201527f537461626c65636f696e206e616f20636f6e66696775726164610000000000006044820152606490fd5b60405162461bcd60e51b815260048101869052601c60248201527f4f6665727461206e616f2061636569746120537461626c65636f696e000000006044820152606490fd5b634e487b7160e01b87526021600452602487fd5b503461023b57604036600319011261023b576113f1611dda565b336001600160a01b0382160361140d57610c20906004356121db565b60405163334bd91960e11b8152600490fd5b503461023b578060031936011261023b576020600e54604051908152f35b503461023b57604036600319011261023b57611457611dc4565b6001600160a01b031681526007602052604081208054602435929083101561023b5760206114858484611df0565b90546040519160031b1c8152f35b50602080600319360112610898576004356114ac61232f565b6114b4612311565b8083526005825260408320906007820191825460ff8160101c1660038110156113c3576114e19015612350565b60ff81161561179757600582019384549283341061175d5760018101916201000060018060a01b03946115198686541633141561239c565b62ff00001916179055426009820155600a8101336001600160601b0360a01b825416179055611558612710611550600854876123f9565b04809561240c565b888080808888600954165af161156c612419565b5015611721578880808093878754165af1611585612419565b50156116dc57808360028a930154169060046003820154910154823b156112b8576115cb92849283604051809681958294637921219560e11b845233306004860161227e565b03925af1801561072c576116c8575b50855480341161165e575b505090600091338852600787526115ff8560408a206122d7565b61160a600c546122b2565b600c5561161a8654600d54612449565b600d55541693549460405195865285015260408401527f69b85276c28e2a27ac74dbe107214165b50f87ea4ef99c420e19fe2f2d6a8bf160603394a4600160025580f35b818061166b81933461240c565b335af1611676612419565b50156116835786386115e5565b60405162461bcd60e51b815260048101879052601760248201527f46616c686120616f206465766f6c7665722074726f636f0000000000000000006044820152606490fd5b6116d190611eef565b6112b45786386115da565b60405162461bcd60e51b815260048101889052601760248201527f46616c686120616f2070616761722076656e6465646f720000000000000000006044820152606490fd5b60405162461bcd60e51b815260048101899052601460248201527346616c686120616f20656e76696172207461786160601b6044820152606490fd5b60405162461bcd60e51b815260048101889052601260248201527156616c6f7220696e737566696369656e746560701b6044820152606490fd5b60405162461bcd60e51b815260048101869052601760248201527f4f6665727461206e616f20616365697461204d415449430000000000000000006044820152606490fd5b503461023b5760208060031936011261089857600435906117fb61232f565b81835260058152604083206001810180546001600160a01b03939192908416913383148015611976575b1561194157600782019081549060ff8260101c16600381101561192d576118f15750906202000088939262ff00001916179055846002820154166004600383015492015491813b156112b857836118949560405196879586948593637921219560e11b8552306004860161227e565b03925af180156118e6576118d3575b505416907f8e25282255ab31897df2b0456bb993ac7f84d376861aefd84901d2d63a7428a28380a3600160025580f35b6118df90949194611eef565b92386118a3565b6040513d87823e3d90fd5b6064906040519062461bcd60e51b8252600482015260156024820152744f6665727461206e616f206573746120617469766160581b6044820152fd5b634e487b7160e01b8a52602160045260248afd5b6064906040519062461bcd60e51b82526004820152600e60248201526d4e616f206175746f72697a61646f60901b6044820152fd5b507f97667070c54ef182b0f5858b034beac1b6f3089aa2d3188bb1e8929f4fa9b92987526001815260408720338852815260ff604088205416611825565b503461023b57604036600319011261023b57610c206004356119d4611dda565b9080845260016020526119ed6001604086200154612135565b61215b565b503461023b57602036600319011261023b57600160406020926004358152828452200154604051908152f35b503461023b57602036600319011261023b57600435611a3b6120dd565b6103e88111611a7e5760407fd347e206f25a89b917fc9482f1a2d294d749baa4dc9bde7fb495ee11fe49164391600854908060085582519182526020820152a180f35b60405162461bcd60e51b815260206004820152600f60248201526e54617861206d6178696d612031302560881b6044820152606490fd5b503461023b578060031936011261023b576020600d54604051908152f35b503461023b57602036600319011261023b5760606101a0604051611af681611ebc565b83815283602082015283604082015283838201528360808201528360a08201528360c08201528360e08201528361010082015283610120820152836101408201528361016082015283610180820152015260043581526005602052604081209060405190611b6382611ebc565b8254825260018301546001600160a01b0390811660208401526002840154166040830152600380840154606084015260048401546080840152600584015460a0840152600684015460c0840152600784015460ff808216151560e0860152600882901c81161515610100860152909291601084901c9091161015611cf9575060101c60ff1661012082015260088201546101408201526009820154610160820152600a8201546001600160a01b03166101808201526101a091611c2890600b01612037565b82820152610bde604051928392602084528051602085015260018060a01b03602082015116604085015260018060a01b03604082015116606085015260608101516080850152608081015160a085015260a081015160c085015260c081015160e085015260e081015115156101008501526101008101511515610120850152611cbb610120820151610140860190611e1e565b61014081015161016085015261016081015161018085015260018060a01b03610180820151168285015201516101c0808401526101e0830190611e41565b634e487b7160e01b81526021600452602490fd5b503461023b57604036600319011261023b57611d27611dc4565b6001600160a01b031681526006602052604081208054602435929083101561023b5760206114858484611df0565b9050346108985760203660031901126108985760043563ffffffff60e01b8116809103610d0c5760209250637965db0b60e01b8114908115611d99575b5015158152f35b630271189760e51b811491508115611db3575b5038611d92565b6301ffc9a760e01b14905038611dac565b600435906001600160a01b03821682036107a657565b602435906001600160a01b03821682036107a657565b8054821015611e085760005260206000200190600090565b634e487b7160e01b600052603260045260246000fd5b906003821015611e2b5752565b634e487b7160e01b600052602160045260246000fd5b919082519283825260005b848110611e6d575050826000602080949584010152601f8019910116010190565b602081830181015184830182015201611e4c565b6020908160408183019282815285518094520193019160005b828110611ea8575050505090565b835185529381019392810192600101611e9a565b6101c0810190811067ffffffffffffffff821117611ed957604052565b634e487b7160e01b600052604160045260246000fd5b67ffffffffffffffff8111611ed957604052565b90601f8019910116810190811067ffffffffffffffff821117611ed957604052565b9080601f830112156107a65781359067ffffffffffffffff8211611ed9578160051b60405193602093611f5a85840187611f03565b855283808601928201019283116107a6578301905b828210611f7d575050505090565b81358152908301908301611f6f565b67ffffffffffffffff8111611ed957601f01601f191660200190565b929192611fb482611f8c565b91611fc26040519384611f03565b8294818452818301116107a6578281602093846000960137010152565b9080601f830112156107a657816020611ffa93359101611fa8565b90565b90600182811c9216801561202d575b602083101461201757565b634e487b7160e01b600052602260045260246000fd5b91607f169161200c565b906040519182600082549261204b84611ffd565b9081845260019485811690816000146120ba5750600114612077575b505061207592500383611f03565b565b9093915060005260209081600020936000915b8183106120a257505061207593508201013880612067565b8554888401850152948501948794509183019161208a565b91505061207594506020925060ff191682840152151560051b8201013880612067565b3360009081527fa6eef7e35abe7026729641147f7915573c7e97b47efa546f5f6e3230263bcb49602052604081205460ff16156121175750565b6044906040519063e2517d3f60e01b82523360048301526024820152fd5b80600052600160205260406000203360005260205260ff60406000205416156121175750565b906000918083526001602052604083209160018060a01b03169182845260205260ff604084205416156000146121d65780835260016020526040832082845260205260408320600160ff198254161790557f2f8788117e7eff1d82e926ec794901d17c78024a50270940304540a733656f0d339380a4600190565b505090565b906000918083526001602052604083209160018060a01b03169182845260205260ff6040842054166000146121d6578083526001602052604083208284526020526040832060ff1981541690557ff6391f5c32d9c69d2a47ea670b442974b53935d1edc7fd64eb21e047a839171b339380a4600190565b6000546001600160a01b0316330361226657565b60405163118cdaa760e01b8152336004820152602490fd5b929060c0949260018060a01b0380921685521660208401526040830152606082015260a06080820152600060a08201520190565b60001981146122c15760010190565b634e487b7160e01b600052601160045260246000fd5b805468010000000000000000811015611ed9576122f991600182018155611df0565b819291549060031b91821b91600019901b1916179055565b60ff6003541661231d57565b60405163d93c066560e01b8152600490fd5b600280541461233e5760028055565b604051633ee5aeb560e01b8152600490fd5b1561235757565b60405162461bcd60e51b815260206004820152601c60248201527f4f666572746120696e6174697661206f75206a612076656e64696461000000006044820152606490fd5b156123a357565b60405162461bcd60e51b815260206004820152602860248201527f56656e6465646f72206e616f20706f646520636f6d707261722070726f70726960448201526761206f666572746160c01b6064820152608490fd5b818102929181159184041417156122c157565b919082039182116122c157565b3d15612444573d9061242a82611f8c565b916124386040519384611f03565b82523d6000602084013e565b606090565b919082018092116122c157565b6040516323b872dd60e01b60208201526001600160a01b03928316602482015292909116604483015260648083019390935291815260a081019181831067ffffffffffffffff841117611ed957612075926040525b60018060a01b0316906124d5600080836020829551910182875af16124ce612419565b908461252d565b908151918215159283612505575b5050506124ed5750565b60249060405190635274afe760e01b82526004820152fd5b81929350906020918101031261089857602001519081159182150361023b57503880806124e3565b90612554575080511561254257805190602001fd5b604051630a12f52160e11b8152600490fd5b81511580612587575b612565575090565b604051639996b31560e01b81526001600160a01b039091166004820152602490fd5b50803b1561255d56fea26469706673582212201eb8e59802d0b1bf23aadcd287916ee3f72c0147e435c0f48e4067a199b8962164736f6c634300081400332f8788117e7eff1d82e926ec794901d17c78024a50270940304540a733656f0d",
  "linkReferences": {},
  "deployedLinkReferences": {}
}