{
  "_format": "hh-sol-artifact-1",
  "contractName": "TokenVesting",
  "sourceName": "src/TokenVesting.sol",
  "abi": [
    {
      "inputs": [
        {
          "internalType": "address",
          "name": "_token",
          "type": "address"
        }
      ],
      "stateMutability": "nonpayable",
      "type": "constructor"
    },
    {
      "inputs": [
        {
          "internalType": "address",
          "name": "target",
          "type": "address"
        }
      ],
      "name": "AddressEmptyCode",
      "type": "error"
    },
    {
      "inputs": [
        {
          "internalType": "address",
          "name": "account",
          "type": "address"
        }
      ],
      "name": "AddressInsufficientBalance",
      "type": "error"
    },
    {
      "inputs": [],
      "name": "FailedInnerCall",
      "type": "error"
    },
    {
      "inputs": [
        {
          "internalType": "address",
          "name": "owner",
          "type": "address"
        }
      ],
      "name": "OwnableInvalidOwner",
      "type": "error"
    },
    {
      "inputs": [
        {
          "internalType": "address",
          "name": "account",
          "type": "address"
        }
      ],
      "name": "OwnableUnauthorizedAccount",
      "type": "error"
    },
    {
      "inputs": [],
      "name": "ReentrancyGuardReentrantCall",
      "type": "error"
    },
    {
      "inputs": [
        {
          "internalType": "address",
          "name": "token",
          "type": "address"
        }
      ],
      "name": "SafeERC20FailedOperation",
      "type": "error"
    },
    {
      "anonymous": false,
      "inputs": [
        {
          "indexed": true,
          "internalType": "address",
          "name": "previousOwner",
          "type": "address"
        },
        {
          "indexed": true,
          "internalType": "address",
          "name": "newOwner",
          "type": "address"
        }
      ],
      "name": "OwnershipTransferred",
      "type": "event"
    },
    {
      "anonymous": false,
      "inputs": [
        {
          "indexed": true,
          "internalType": "bytes32",
          "name": "scheduleId",
          "type": "bytes32"
        },
        {
          "indexed": true,
          "internalType": "address",
          "name": "beneficiary",
          "type": "address"
        },
        {
          "indexed": false,
          "internalType": "uint256",
          "name": "amount",
          "type": "uint256"
        },
        {
          "indexed": false,
          "internalType": "uint256",
          "name": "startTime",
          "type": "uint256"
        },
        {
          "indexed": false,
          "internalType": "uint256",
          "name": "cliffDuration",
          "type": "uint256"
        },
        {
          "indexed": false,
          "internalType": "uint256",
          "name": "vestingDuration",
          "type": "uint256"
        },
        {
          "indexed": false,
          "internalType": "bool",
          "name": "revocable",
          "type": "bool"
        }
      ],
      "name": "ScheduleCreated",
      "type": "event"
    },
    {
      "anonymous": false,
      "inputs": [
        {
          "indexed": true,
          "internalType": "bytes32",
          "name": "scheduleId",
          "type": "bytes32"
        },
        {
          "indexed": true,
          "internalType": "address",
          "name": "beneficiary",
          "type": "address"
        },
        {
          "indexed": false,
          "internalType": "uint256",
          "name": "unvestedAmount",
          "type": "uint256"
        }
      ],
      "name": "ScheduleRevoked",
      "type": "event"
    },
    {
      "anonymous": false,
      "inputs": [
        {
          "indexed": true,
          "internalType": "bytes32",
          "name": "scheduleId",
          "type": "bytes32"
        },
        {
          "indexed": true,
          "internalType": "address",
          "name": "beneficiary",
          "type": "address"
        },
        {
          "indexed": false,
          "internalType": "uint256",
          "name": "amount",
          "type": "uint256"
        }
      ],
      "name": "TokensReleased",
      "type": "event"
    },
    {
      "anonymous": false,
      "inputs": [
        {
          "indexed": true,
          "internalType": "address",
          "name": "to",
          "type": "address"
        },
        {
          "indexed": false,
          "internalType": "uint256",
          "name": "amount",
          "type": "uint256"
        }
      ],
      "name": "TokensWithdrawn",
      "type": "event"
    },
    {
      "inputs": [
        {
          "internalType": "address",
          "name": "",
          "type": "address"
        },
        {
          "internalType": "uint256",
          "name": "",
          "type": "uint256"
        }
      ],
      "name": "beneficiarySchedules",
      "outputs": [
        {
          "internalType": "bytes32",
          "name": "",
          "type": "bytes32"
        }
      ],
      "stateMutability": "view",
      "type": "function"
    },
    {
      "inputs": [
        {
          "internalType": "address",
          "name": "_beneficiary",
          "type": "address"
        },
        {
          "internalType": "uint256",
          "name": "_amount",
          "type": "uint256"
        },
        {
          "internalType": "uint256",
          "name": "_startTime",
          "type": "uint256"
        },
        {
          "internalType": "uint256",
          "name": "_cliffDuration",
          "type": "uint256"
        },
        {
          "internalType": "uint256",
          "name": "_vestingDuration",
          "type": "uint256"
        },
        {
          "internalType": "bool",
          "name": "_revocable",
          "type": "bool"
        }
      ],
      "name": "createVestingSchedule",
      "outputs": [
        {
          "internalType": "bytes32",
          "name": "scheduleId",
          "type": "bytes32"
        }
      ],
      "stateMutability": "nonpayable",
      "type": "function"
    },
    {
      "inputs": [
        {
          "internalType": "address",
          "name": "beneficiary",
          "type": "address"
        }
      ],
      "name": "getBeneficiaryBalance",
      "outputs": [
        {
          "internalType": "uint256",
          "name": "totalBalance",
          "type": "uint256"
        },
        {
          "internalType": "uint256",
          "name": "releasableBalance",
          "type": "uint256"
        },
        {
          "internalType": "uint256",
          "name": "lockedBalance",
          "type": "uint256"
        }
      ],
      "stateMutability": "view",
      "type": "function"
    },
    {
      "inputs": [
        {
          "internalType": "bytes32",
          "name": "scheduleId",
          "type": "bytes32"
        }
      ],
      "name": "getScheduleInfo",
      "outputs": [
        {
          "internalType": "address",
          "name": "beneficiary",
          "type": "address"
        },
        {
          "internalType": "uint256",
          "name": "totalAmount",
          "type": "uint256"
        },
        {
          "internalType": "uint256",
          "name": "released",
          "type": "uint256"
        },
        {
          "internalType": "uint256",
          "name": "releasable",
          "type": "uint256"
        },
        {
          "internalType": "uint256",
          "name": "startTime",
          "type": "uint256"
        },
        {
          "internalType": "uint256",
          "name": "cliffEnd",
          "type": "uint256"
        },
        {
          "internalType": "uint256",
          "name": "vestingEnd",
          "type": "uint256"
        },
        {
          "internalType": "bool",
          "name": "isInCliff",
          "type": "bool"
        },
        {
          "internalType": "bool",
          "name": "isFullyVested",
          "type": "bool"
        },
        {
          "internalType": "bool",
          "name": "revocable",
          "type": "bool"
        },
        {
          "internalType": "bool",
          "name": "revoked",
          "type": "bool"
        }
      ],
      "stateMutability": "view",
      "type": "function"
    },
    {
      "inputs": [
        {
          "internalType": "address",
          "name": "beneficiary",
          "type": "address"
        }
      ],
      "name": "getSchedulesByBeneficiary",
      "outputs": [
        {
          "internalType": "bytes32[]",
          "name": "",
          "type": "bytes32[]"
        }
      ],
      "stateMutability": "view",
      "type": "function"
    },
    {
      "inputs": [],
      "name": "owner",
      "outputs": [
        {
          "internalType": "address",
          "name": "",
          "type": "address"
        }
      ],
      "stateMutability": "view",
      "type": "function"
    },
    {
      "inputs": [
        {
          "internalType": "bytes32",
          "name": "scheduleId",
          "type": "bytes32"
        }
      ],
      "name": "releasableAmount",
      "outputs": [
        {
          "internalType": "uint256",
          "name": "",
          "type": "uint256"
        }
      ],
      "stateMutability": "view",
      "type": "function"
    },
    {
      "inputs": [
        {
          "internalType": "bytes32",
          "name": "scheduleId",
          "type": "bytes32"
        }
      ],
      "name": "release",
      "outputs": [
        {
          "internalType": "uint256",
          "name": "released",
          "type": "uint256"
        }
      ],
      "stateMutability": "nonpayable",
      "type": "function"
    },
    {
      "inputs": [
        {
          "internalType": "address",
          "name": "beneficiary",
          "type": "address"
        }
      ],
      "name": "releaseAll",
      "outputs": [
        {
          "internalType": "uint256",
          "name": "totalReleased",
          "type": "uint256"
        }
      ],
      "stateMutability": "nonpayable",
      "type": "function"
    },
    {
      "inputs": [],
      "name": "renounceOwnership",
      "outputs": [],
      "stateMutability": "nonpayable",
      "type": "function"
    },
    {
      "inputs": [
        {
          "internalType": "bytes32",
          "name": "scheduleId",
          "type": "bytes32"
        }
      ],
      "name": "revokeSchedule",
      "outputs": [],
      "stateMutability": "nonpayable",
      "type": "function"
    },
    {
      "inputs": [],
      "name": "token",
      "outputs": [
        {
          "internalType": "contract IERC20",
          "name": "",
          "type": "address"
        }
      ],
      "stateMutability": "view",
      "type": "function"
    },
    {
      "inputs": [],
      "name": "totalVestingAmount",
      "outputs": [
        {
          "internalType": "uint256",
          "name": "",
          "type": "uint256"
        }
      ],
      "stateMutability": "view",
      "type": "function"
    },
    {
      "inputs": [
        {
          "internalType": "address",
          "name": "newOwner",
          "type": "address"
        }
      ],
      "name": "transferOwnership",
      "outputs": [],
      "stateMutability": "nonpayable",
      "type": "function"
    },
    {
      "inputs": [
        {
          "internalType": "bytes32",
          "name": "scheduleId",
          "type": "bytes32"
        }
      ],
      "name": "vestedAmount",
      "outputs": [
        {
          "internalType": "uint256",
          "name": "",
          "type": "uint256"
        }
      ],
      "stateMutability": "view",
      "type": "function"
    },
    {
      "inputs": [
        {
          "internalType": "bytes32",
          "name": "",
          "type": "bytes32"
        }
      ],
      "name": "vestingSchedules",
      "outputs": [
        {
          "internalType": "address",
          "name": "beneficiary",
          "type": "address"
        },
        {
          "internalType": "uint256",
          "name": "totalAmount",
          "type": "uint256"
        },
        {
          "internalType": "uint256",
          "name": "released",
          "type": "uint256"
        },
        {
          "internalType": "uint256",
          "name": "startTime",
          "type": "uint256"
        },
        {
          "internalType": "uint256",
          "name": "cliffDuration",
          "type": "uint256"
        },
        {
          "internalType": "uint256",
          "name": "vestingDuration",
          "type": "uint256"
        },
        {
          "internalType": "bool",
          "name": "revocable",
          "type": "bool"
        },
        {
          "internalType": "bool",
          "name": "revoked",
          "type": "bool"
        }
      ],
      "stateMutability": "view",
      "type": "function"
    },
    {
      "inputs": [
        {
          "internalType": "uint256",
          "name": "amount",
          "type": "uint256"
        }
      ],
      "name": "withdrawUnallocated",
      "outputs": [],
      "stateMutability": "nonpayable",
      "type": "function"
    }
  ],
  "bytecode": "0x60a03461013957601f61154238819003918201601f19168301916001600160401b0383118484101761013e5780849260209460405283398101031261013957516001600160a01b0380821691829003610139573315610120576000543360018060a01b0319821617600055604051913391167f8be0079c531659141344cd1fd0a4f28419497f9722a3daafe3b4186f6b6457e0600080a36001805581156100de57506080526040516113ed9081610155823960805181818160f10152818161022f015281816105f2015281816108d601528181610ab30152610d5f0152f35b62461bcd60e51b815260206004820152601b60248201527f546f6b656e56657374696e673a20696e76616c696420746f6b656e00000000006044820152606490fd5b604051631e4fbdf760e01b815260006004820152602490fd5b600080fd5b634e487b7160e01b600052604160045260246000fdfe6040608081526004908136101561001557600080fd5b600091823560e01c90816307bcb6ef14610f2c578163209535e514610f0457816328fbf44914610e255781632db94d1914610e0757816333bf5cf214610de057816346ca424114610d8a578163580fc80a14610c205781636041788714610b9d57816367d42a8b14610a1d578163715018a6146109c35781638acadc2e146107eb5781638da5cb5b146107c35781639466e9e914610713578163a9015400146105c1578163aaad9321146101af578163f2fde38b14610124575063fc0c546a146100de57600080fd5b34610120578160031936011261012057517f00000000000000000000000000000000000000000000000000000000000000006001600160a01b03168152602090f35b5080fd5b9050346101ab5760203660031901126101ab5761013f611026565b9061014861106f565b6001600160a01b0391821692831561019557505082546001600160a01b0319811683178455167f8be0079c531659141344cd1fd0a4f28419497f9722a3daafe3b4186f6b6457e08380a380f35b51631e4fbdf760e01b8152908101849052602490fd5b8280fd5b919050346101ab5760c03660031901126101ab576101cb611026565b91602490813590604435956064356084359160a43593841515809503610120576101f361106f565b6001600160a01b038981169790929088156105755787156105345785156104e75789516370a0823160e01b8152308482015260209c908d8184817f00000000000000000000000000000000000000000000000000000000000000008a165afa9081156104dd5784916104ac575b5061026c8a86546110d3565b11610460578c906005549c8c51928301906bffffffffffffffffffffffff199060601b1681528d603484015260348352606083019267ffffffffffffffff938181108582111761044e578e525190209c6102c5906110f6565b60055580610448575042945b8b51916101008301908111838210176104365789928f8f8f8f918f8a978f95938f958f9560029160069b84528a52808a01948552828a01958c875260608b0197885260808b0198895260a08b01998a5260c08b019d8e528c60e08c019d8e5252528c209651166bffffffffffffffffffffffff60a01b875416178655516001860155516002850155516003840155518883015551600582015501915115159060ff61ff0084549251151560081b1692169061ffff19161717905588825260038c5289822090815492680100000000000000008410156104265750509260a095926103e6837f3899129ee75e5ac6a4202def54482b0af3361fa1118e35fb2c00008a6104fb71999660018f9c9996018155611041565b81549060031b908b821b91600019901b19161790556104068682546110d3565b905589519485528b8501528884015260608301526080820152a351908152f35b634e487b7160e01b815260418552fd5b634e487b7160e01b8552604186528385fd5b946102d1565b634e487b7160e01b8752604188528587fd5b508260216084928e8d519362461bcd60e51b85528401528201527f546f6b656e56657374696e673a20696e73756666696369656e7420746f6b656e6044820152607360f81b6064820152fd5b90508d81813d83116104d6575b6104c3818361109b565b810103126104d2575138610260565b8380fd5b503d6104b9565b8c513d86823e3d90fd5b82602260849260208d519362461bcd60e51b85528401528201527f546f6b656e56657374696e673a206475726174696f6e206d757374206265203e604482015261020360f41b6064820152fd5b826020606492818d519362461bcd60e51b85528401528201527f546f6b656e56657374696e673a20616d6f756e74206d757374206265203e20306044820152fd5b82602160849260208d519362461bcd60e51b85528401528201527f546f6b656e56657374696e673a20696e76616c69642062656e656669636961726044820152607960f81b6064820152fd5b838334610120576020806003193601126101ab5783356105df61106f565b82516370a0823160e01b815230818701527f0000000000000000000000000000000000000000000000000000000000000000956001600160a01b03918481602481868c165afa80156107095787906106d6575b61063f9150825490611150565b83116106845750610678828697837f6352c5382c4a4578e712449ca65e83cdb392d045dfcf1cad9615189db2da244b979854169061115d565b8554169351908152a280f35b845162461bcd60e51b8152908101849052602660248201527f546f6b656e56657374696e673a20696e73756666696369656e7420756e616c6c6044820152651bd8d85d195960d21b6064820152608490fd5b508481813d8311610702575b6106ec818361109b565b810103126106fe5761063f9051610632565b8680fd5b503d6106e2565b86513d89823e3d90fd5b8284346107c057602090816003193601126107c05782906001600160a01b0361073a611026565b16815260038352818120908251808584549182815201908194845286842090845b8181106107ac575050508161077191038261109b565b83519485948186019282875251809352850193925b82811061079557505050500390f35b835185528695509381019392810192600101610786565b82548452928801926001928301920161075b565b80fd5b505034610120578160031936011261012057905490516001600160a01b039091168152602090f35b838334610120576020806003193601126101ab5783359061080a61106f565b8184526002815282842080546001600160a01b039081169161082d831515611105565b6006810197885460ff8116156109745760081c60ff16610931577f99a2f33f71b04c0132aba0141ab231535e9df720b7e89d74fb38c584a6099a60959697986108758361132e565b6002840180546108936108888285611150565b936001880154611150565b97836108c3575b5050505061010061ff00198254161790556108b6848254611150565b905554169451908152a380f35b6108fa926108d28580946110d3565b90557f000000000000000000000000000000000000000000000000000000000000000061115d565b887f62eb4bd96d9a7a66875a9f46f9f9d8bf6cfed3fe0578671b752301427d2a4f668887875416938d51908152a38a80808061089a565b865162461bcd60e51b8152908101859052601d60248201527f546f6b656e56657374696e673a20616c7265616479207265766f6b65640000006044820152606490fd5b875162461bcd60e51b81528083018790526024808201527f546f6b656e56657374696e673a207363686564756c65206e6f74207265766f6360448201526361626c6560e01b6064820152608490fd5b83346107c057806003193601126107c0576109dc61106f565b80546001600160a01b03198116825581906001600160a01b03167f8be0079c531659141344cd1fd0a4f28419497f9722a3daafe3b4186f6b6457e08280a380f35b919050346101ab57602092836003193601126107c05781833591610a3f6112ce565b828152600286522080546001600160a01b039190610a609083161515611105565b60ff600682015460081c16610b5a57610a788161132e565b9460028201610a8981548098611150565b968715610b0c5787610a9a916110d3565b9055610aa7868254611150565b9055610ad785838354167f000000000000000000000000000000000000000000000000000000000000000061115d565b5416907f62eb4bd96d9a7a66875a9f46f9f9d8bf6cfed3fe0578671b752301427d2a4f66858451868152a36001805551908152f35b865162461bcd60e51b81528084018a9052602260248201527f546f6b656e56657374696e673a206e6f20746f6b656e7320746f2072656c6561604482015261736560f01b6064820152608490fd5b835162461bcd60e51b8152808601879052601e60248201527f546f6b656e56657374696e673a207363686564756c65207265766f6b656400006044820152606490fd5b9050346101ab5760203660031901126101ab5780826101009460ff9335815260026020522060018060a01b03815416936001820154926002830154600384015491840154926006600586015495015495815198895260208901528701526060860152608085015260a0840152818116151560c084015260081c16151560e0820152f35b8284346107c0576020918260031936011261012057610c3d611026565b92610c466112ce565b829060018060a01b03851693848152600380835284822097825b8954811015610d4257610c73818b611041565b905490841b1c8452898860028088528987209060ff600683015460081c16610d3557610c9e8261132e565b9101610cac81548093611150565b9182610cc6575b5050505050610cc1906110f6565b610c60565b610d1c86610d1685610cc199989e7f62eb4bd96d9a7a66875a9f46f9f9d8bf6cfed3fe0578671b752301427d2a4f66968f9683610d02916110d3565b9055610d0f828d54611150565b8c556110d3565b9c611041565b905490891b1c928c51908152a3905089888c8080610cb3565b50505050610cc1906110f6565b8486888b8280610d59575b50506001805551908152f35b610d83917f000000000000000000000000000000000000000000000000000000000000000061115d565b8382610d4d565b505034610120578060031936011261012057610da4611026565b6001600160a01b031682526003602052808220805460243593908410156107c05750602092610dd291611041565b90549060031b1c9051908152f35b8284346107c05760203660031901126107c05750610e00602092356112f1565b9051908152f35b9050346101ab57826003193601126101ab5760209250549051908152f35b839150346101205760203660031901126101205760ff610160938235845260026020528084209260018060a01b038454169460018501549160028601549360038701549187015491610e8f610e84610e7d85846110d3565b94836110d3565b60058a0154906110d3565b91600689015496610ea5898960081c169a61132e565b958a15610ef357915b80519b8c528760208d01528b015260608a015260808901528160a089015260c0880152421060e087015210156101008501521615156101208301521515610140820152f35b50610efe8187611150565b91610eae565b9050346101ab5760203660031901126101ab5781602093610e0092358152600285522061132e565b50503461012057602090816003193601126101ab57610f49611026565b6001600160a01b03168352600380835281842080549094938493928492839182905b828410610f875750505050606095508251948552840152820152f35b90919296610f95888b611041565b905490831b1c83526002988986528784209960ff60068c015460081c166110195760018b0154908b01549081610fca91611150565b9182610fd5916110d3565b9a610fdf9061132e565b90610fe991611150565b9687610ff4916110d3565b96610ffe91611150565b611007916110d3565b96611011906110f6565b929190610f6b565b50985096611011906110f6565b600435906001600160a01b038216820361103c57565b600080fd5b80548210156110595760005260206000200190600090565b634e487b7160e01b600052603260045260246000fd5b6000546001600160a01b0316330361108357565b60405163118cdaa760e01b8152336004820152602490fd5b90601f8019910116810190811067ffffffffffffffff8211176110bd57604052565b634e487b7160e01b600052604160045260246000fd5b919082018092116110e057565b634e487b7160e01b600052601160045260246000fd5b60001981146110e05760010190565b1561110c57565b606460405162461bcd60e51b815260206004820152602060248201527f546f6b656e56657374696e673a207363686564756c65206e6f7420666f756e646044820152fd5b919082039182116110e057565b60405163a9059cbb60e01b602082019081526001600160a01b039384166024830152604480830195909552938152929167ffffffffffffffff9160808501838111868210176110bd576040521692600080938192519082875af13d1561125e573d91821161124a57906111f291604051916111e26020601f19601f840116018461109b565b82523d84602084013e5b8461126b565b908151918215159283611222575b50505061120a5750565b60249060405190635274afe760e01b82526004820152fd5b8192935090602091810103126101205760200151908115918215036107c05750388080611200565b634e487b7160e01b83526041600452602483fd5b6111f291506060906111ec565b90611292575080511561128057805190602001fd5b604051630a12f52160e11b8152600490fd5b815115806112c5575b6112a3575090565b604051639996b31560e01b81526001600160a01b039091166004820152602490fd5b50803b1561129b565b6002600154146112df576002600155565b604051633ee5aeb560e01b8152600490fd5b6000526002602052604060002060ff600682015460081c166113285780600261131c6113259361132e565b91015490611150565b90565b50600090565b60038101548042106113b0576004820154611348916110d3565b908142106113b05760058101549161136083826110d3565b4210156113a65761137360019142611150565b9101548181029181830414901517156110e0578115611390570490565b634e487b7160e01b600052601260045260246000fd5b5060019150015490565b505060009056fea264697066735822122079e09039dcd5b8b37a784b3c70117b0cde54bdbceb7b0f3f74b103cfaf9cba6864736f6c63430008140033",
  "linkReferences": {},
  "deployedLinkReferences": {}
}